:020000040800F2
:10000000700B0020B90100082B46000805380008D5
:1000100029460008C11C0008694D000800000000C6
:10002000000000000000000000000000A5480008DB
:10003000E71C000800000000AF470008E94800087E
:10004000D3010008D3010008D3010008D301000840
:10005000D3010008D3010008D3010008D301000830
:10006000D3010008D3010008D3010008D301000820
:10007000D3010008D3010008D3010008D301000810
:10008000D3010008D3010008D3010008D301000800
:10009000D3010008D3010008D3010008D3010008F0
:1000A000D3010008D3010008D3010008D3010008E0
:1000B000D3010008D3010008D30100081538000857
:1000C000093800082D38000821380008B147000819
:1000D000D3010008D3010008D30100085D4D0008DA
:1000E000D3010008D3010008D301000800F002F892
:1000F00000F052F80AA090E8000C82448344AAF170
:100100000107DA4501D100F047F8AFF2090EBAE86D
:100110000F0013F0010F18BFFB1A43F0010318473B
:10012000D0560000F0560000103A24BF78C878C1BD
:10013000FAD8520724BF30C830C144BF04680C60ED
:10014000704700000023002400250026103A28BF35
:1001500078C1FBD8520728BF30C148BF0B60704739
:10016000662905F0D882642900F05280002070478B
:100170001FB59DE8030000F0CDFF00F0F1FB040087
:100180000020002104F088FFE06000F001FD1FBDA9
:1001900010B500F066FD10BD00F09AFD1146FFF7A6
:1001A000E7FF04F087FE00F089FF03B4FFF7F0FFDC
:1001B00003BC01F021F900000948804709480047C5
:1001C000FEE7FEE7FEE7FEE7FEE7FEE7FEE7FEE707
:1001D000FEE7FEE704480549054A064B7047000064
:1001E00049490008ED00000870050020700B002050
:1001F00070070020700700200FB4044910B503AA4F
:10020000029800F09BFB10BC5DF814FB6804002012
:100210002DE9F0410646002410687529314616A5DF
:1002200010D0AFF30080002802DA404213A507E0A7
:1002300031688A0701D512A502E0490704D511A546
:10024000012401E0AFF3008000210A2206F1240717
:1002500009E0B0FBF2FCB0FBF2F302FB1C00303013
:1002600078541846491C0028F3D123462A463046C4
:10027000BDE8F04100F0F9B8000000002D000000DA
:100280002B000000200000002DE9F0474FF0000A8D
:1002900089460446C0F820A02046E1688847002827
:1002A00076D0252806D0D4E901219047206A401C49
:1002B0002062F1E7E168204600258847C4F81CA0C9
:1002C00006460027C4F818A02A2E09D0304604F0AC
:1002D00070FD38B304EB8708303EC8F8186019E0A9
:1002E00059F8041B204604EB87029161E1688847B6
:1002F000012F064618D1E069002820DA25F02005F4
:100300001DE0D8F8180000EB800006EB4000303804
:10031000C8F818002046E1688847064604F049FD01
:100320000028EED1012F0AD02E2E08D12046E168F8
:1003300088477F1C0646022F45F02005C4DBA069D4
:10034000002803DA404245F00105A061E80701D02A
:1003500025F01005B6B1A6F14100192802D82036C3
:1003600045F400654A463146204625604D46FFF774
:10037000F7FE58B1012806D0ED1D25F0070000F169
:10038000080989E704E005F1040985E730468AE7B2
:10039000206ABDE8F0874FF0000200B5134694468E
:1003A0009646203922BFA0E80C50A0E80C50B1F1CD
:1003B0002001BFF4F7AF090728BFA0E80C5048BFE1
:1003C0000CC05DF804EB890028BF40F8042B08BF7F
:1003D000704748BF20F8022B11F0804F18BF00F87B
:1003E000012B70474FF0013C50F8042B51F8043BAF
:1003F0009A4221D1A2EB0C03934313EACC1317D1F9
:1004000050F8042B51F8043B9A4215D1A2EB0C038F
:10041000934313EACC130BD150F8042B51F8043B4F
:100420009A4209D1A2EB0C03934313EACC13DBD01D
:100430004FF00000704700BFD01A01BAB1FA81F145
:1004400001F0180122FA01F0CB40C1F12001DBB22A
:10045000C0B2C01A2CFA01F3D11A914311EAC311A8
:10046000E6D170477047704770472DE9F0470D4659
:1004700099469246044600F124080168880604D58E
:10048000E06921F01001216000E00120A84201DDB7
:10049000471B00E00027A1697A1902EB0900081A3E
:1004A000A0612078C00602D42046AFF30080002669
:1004B00008E0D4E901211AF806009047206A401CA0
:1004C000761C20624E45F4DB2078C0060AD5204613
:1004D000AFF3008006E0D4E9012130209047206A84
:1004E000401C2062381EA7F10107F4DC07E0D4E9C4
:1004F000012118F805009047206A401C2062281E40
:10050000A5F10105F3DC2046AFF30080207800065A
:1005100002D50220BDE8F0870120FBE770472DE9F6
:10052000FF4F0C461E464FF0FF378BB0D2E900015B
:10053000DDF860800A908A46C1F30A5505B93D4648
:10054000002108464FF00000BAF1000F00F440000F
:1005500005DA00EB80004FF4400101EA50004FEA59
:100560009059B9F1010F00DDB9460A9850EA4A00E6
:100570000ED044F61050A5F2FF3545432F14B8F1C4
:10058000000F1ED07542291E1EDDC9F100021CE0BD
:10059000B8F1010F4FF0000001D0302103E0F24329
:1005A00005E02154401CB042FBDB30460022002114
:1005B00021540B99C1F80880C1E900200FB0BDE8B3
:1005C000F08FBD1B6D1CDEE74A4600DA694206A8C3
:1005D00000F068FA06AB93E8070003AB83E8070076
:1005E00050460A9900F0A4FF8DE80700A0F50050DE
:1005F0001F3800900398002D0ADD42F21F014A4681
:100600000844002303A90390684601F00DFA09E0AD
:10061000A0F500504A461F38002303A903906846FE
:1006200001F017FA8DE807000004000C03D04FF02A
:10063000FF30410800E01046B8F1000F03D000225F
:10064000009215461EE0751E05D400F08DF930327B
:1006500062556D1EF9D5B3460122084302D000222F
:100660007F1C04E02078302801D100227F1E002A60
:10067000099784D01DE0112D07DA00F075F93032AA
:1006800062556D1C50EA0102F5D1084302D0009872
:10069000C8B10EE00021681E05E0235C625C635473
:1006A0002254401E491C8142F7DBAB46A81B401E6A
:1006B0000990002004F80B000B98099AC0F80880F4
:1006C000C0E9002B7AE711264FF0000857E72DE923
:1006D000F04F88460446D21D22F0070191B0D1E9BF
:1006E0000001CDE90A0104F040FB02460B98C00F5F
:1006F00001D02D2007E02068810701D52B2002E0E2
:10070000202101EAC000032A099001D0072A05DB55
:1007100003464146204600F085F90BE1207880062B
:1007200001D5E06900E00620B8F1650F814606D0EA
:10073000B8F1660F18D0B8F1670F70D131E0002022
:10074000B9F1110F009001DB112301E009F1010360
:100750000AAA01A90CA8FFF7E2FEDDE90C70002649
:1007600009F10105834647E001204B4600904FF018
:1007700000470AAA01A90CA8FFF7D1FEDDE90DB0D8
:100780000C995D46002610B909F101000D18B9EB6E
:10079000050003D4C0F1FF3609F10105A5EB0900FE
:1007A0002BE0B9F1010F01DA4FF001090020B9F196
:1007B000110F0090484601DD112300E003460AAA0C
:1007C00001A90CA8FFF7ABFEDDE90C704D46002631
:1007D0008346207800070AD4AB4500DA5D4601A8BD
:1007E000012D04DD411911F8011C302907D04F45B6
:1007F00002DA17F1040F04DA012082460FE06D1EC1
:10080000EEE7002F02DCED1B3E4403E0781CA8421B
:1008100000DD7D1CB81B00F1010A4FF00047207875
:10082000000703D4AA4501DB4FF0FF3A0021B7F1DE
:10083000004F0DF143088DF8431024D002202B23E4
:10084000002F01DA7F422D230A21021EA0F10100B0
:1008500000DC5FB197FBF1FC97FBF1F201FB1C7C24
:1008600017460CF1300C08F801CDEEE7A8F10100B5
:1008700003702188090501D5452100E06521A0F11B
:10088000010800F8011C09980FA9A1EB0807FF1D3A
:1008900000B10120411901EBEA70A1693844081A3E
:1008A000401EA0612078C00602D42046AFF300802D
:1008B000099828B1D4E901219047206A401C2062A0
:1008C0002078C00622D52046AFF300801EE0002E1F
:1008D00004DBB34502DD01A8805D00E03020D4E9EF
:1008E00001219047206A401C2062761CAAF1010079
:1008F0005FEA000A0AD100F033F8C0680168405C82
:10090000D4E901219047206A401C2062281EA5F1ED
:100910000105DCDC07E0D4E9012118F8010B904760
:10092000206A401C2062381EA7F10107F3DC204634
:10093000AFF30080032011B041E60000074B70B513
:100940000D467B4400F05BF80446284600F01CF995
:1009500010B14FF0FF3070BD204670BD554500000E
:10096000004870473005002030B5B0F10A024FEA68
:10097000900E71F100034EEA817EB0EB0E0061EB48
:1009800091014FEA101E4EEA017E10EB0E0041EB82
:1009900011114FEA102E4EEA016E10EB0E0041EBE2
:1009A00011214FEA104E4EEA014E10EB0E0041EBC2
:1009B0001141401841F100014FEAD00040EA417076
:1009C0004FEAD10110EB80054FEA810444EA9074AC
:1009D00044EB01046D1944EB0404521BA3414FF096
:1009E000000348BF0A3200D530BD401C41F1000170
:1009F00030BD000001694A1C02610878704700B5EB
:100A00008FB0CDE901310021059105497944CDE947
:100A1000031011466846FFF737FC0FB000BD000019
:100A2000E5FFFFFF2DE9F0411F460446032601685C
:100A3000072A01F4006004DB08B116A505E016A53D
:100A400003E008B115A500E015A521F01000206015
:100A5000A069C01EA0610FB1401EA0612046AFF387
:100A600000804FB1D4E9012138469047206A401CEC
:100A70002062C01C206206E0206AFAE7D4E9012166
:100A800015F8010B9047761EF8D22046AFF3008090
:100A9000BDE8F0814E414E006E616E00494E460049
:100AA000696E66002DE9F047814616468AB03548E2
:100AB00078440DC88DE80D0032487844801C03ACA2
:100AC0000DC884E80D0041F69B300844372190FBA7
:100AD000F1F290FBF1F5A5F1800501FB12041B3C3E
:100AE00002D56442012000E00020DFF898A0804693
:100AF0000027FA44AAF1BE0A0EE0E0070AD0324607
:100B0000684607EB470101230AEB810100F0A1FFD2
:100B10008DE8070064107F1C002CEED1194F7F4434
:100B2000AE3F19E0E80715D007EB04100DF1180AE5
:100B300090E80E008AE80E00C068F04201D19819D2
:100B400008903246012306A903A800F082FF03ABF8
:100B500083E807006D10641C002DE3D14FF0010302
:100B600032466946B8F1000F03A802D000F05CFFDE
:100B700001E000F06EFFC9E90001C9F808200AB0E1
:100B8000BDE8F087244D0000007B00F08000704736
:100B900010B542485421FFF7FEFB41485421FFF7AE
:100BA000FAFB40485421FFF7F6FB3F493B483C4ADB
:100BB0003F4B08603D490A603A491960531C036580
:100BC000481C1065012008653B48344A39A1784427
:100BD00000F0D8F920B9384878440A3800F077FA9C
:100BE00037482F4A35A1784400F0CCF920B9344871
:100BF00078440A3800F06BFA32482A4A2FA1784428
:100C000000F0C0F920B92F4878440A3800F05FFAA4
:100C100040232248DC000021224600F090F920B158
:100C200025487844543800F052FA1D4822464023A3
:100C3000002100F084F920B121487844543800F0B4
:100C400046FA184822461023002100F078F90028BF
:100C500006D01C487844BDE81040563800F037BA3A
:100C600010BD104870B5006D20F001040B4800F075
:100C7000FFF90B4800F0FCF90A4800F0F9F909E027
:100C8000206D20F00105204600F0F2F9204600F02A
:100C900044F82C46002CF3D170BD00001404002051
:100CA00068040020BC040020100000201400002074
:100CB0001800002072000000724B00007700000056
:100CC000614B0000514B00000048704710050020A8
:100CD0007546FFF7F9FFAE4605006946534620F01A
:100CE0000700854618B020B5FFF774FABDE820402C
:100CF0004FF000064FF000074FF000084FF0000BD8
:100D000021F00701AC46ACE8C009ACE8C009ACE88A
:100D1000C009ACE8C0098D46704770B50446051F90
:100D200000F0DCF90068002C14BF446870BD002C92
:100D300018BFAC423CBF20466468F8D301680A186B
:100D4000AA4218BF456003D12A68054611440160D4
:100D500028684119A1421CBF6C6070BD6168696060
:100D600021680844286070BD2DE9F04705460C460F
:100D7000C86820F4201040F48000C860800602D5C6
:100D8000084600F0F8FAE06841F282014FF0FF39BE
:100D90000140022903D0204600F096FAB5E000F4A5
:100DA0002041B1F5004F0FD1C00306D56168E06A5C
:100DB000884200D80846606006E02069E062606012
:100DC000606904F009F8A061A0680022EEB2002872
:100DD0000DDAE1688B050AD4C043A06041F490307D
:100DE0002260E0606068411C61600670A5E0E06818
:100DF0009046226040F40050E060206968BB606962
:100E000003F0F0FF012704F12405A0B1A08910F43C
:100E1000407F08D0E06900F0ACF9206118B1E068CB
:100E200040F4006016E0E7612561E06820F440705E
:100E300040F480600EE0E06900F09BF9002820613A
:100E4000F1D0E06840F4006010F4407FE06002D12F
:100E500040F48070E06020696060E06825696FF0B0
:100E6000010AC1051FD56168E06A884200D80846BA
:100E7000411B04D02246284600F030FAF0BBE0685F
:100E8000010203D5E562C4E9015854E0691CE1623E
:100E90006160E16940F48030491EC4E902103046C7
:100EA0002E70BDE8F087010202D500F480320AE01E
:100EB0006068411C61600670E0680A2E40F4803072
:100EC000E06006D00022E16A6068814203D90B46E7
:100ED00002E00122F7E70346A7895B1B7F0503D4E5
:100EE000E7699F4200DDE2B1814200D80146E56238
:100EF0000F1AC4E90158002B09DD00E005E0224685
:100F00001946284600F0EAF908B14846C9E747B152
:100F1000A069E5626560C01BA061E06840F0100058
:100F2000E060E068000208D56168A069E562491BDD
:100F300008446560A0615046B3E73046B1E770B53C
:100F4000C468A50713D0650211D4B2F5807F09D01B
:100F5000B2F5007F06D0B2F5806F08D1012300F111
:100F6000240106E05D1E6FF07F46B54201D30120EB
:100F700070BD0161C361416024F470611143C160BF
:100F8000002070BD2DE9F0410C460746164610467C
:100F900000F06EF82078611C61280AD0722802D017
:100FA00077283CD102E00125002405E00225042435
:100FB00002E0082448F2020511F8010B2B2806D0A4
:100FC000622809D011F8010C74280AD00BE045F012
:100FD000030544F00204EFE745F0040544F0010482
:100FE000EAE744F010043846214603F007FF411CAD
:100FF00015D00021316171604FF40071F560F1612D
:101000007061200704D530460222002100F0E0F88C
:10101000306D40F0010030653046BDE8F0810020C1
:10102000FBE72DE9F0410D460646104C206DC10747
:1010300004D0410804D020F00104F7E722460EE076
:10104000542000F096F807000ED0206D47F0010103
:101050000843542120653846FFF79DF93A46294652
:101060003046BDE8F0418DE70020D6E714040020AB
:101070002DE9F04704464FF000094FF0FF37C568EF
:10108000D4E90486A80707D0204600F051F930467D
:1010900003F096FE002802DA3846BDE8F0872805FE
:1010A00002D54046FFF739FE4C212046FFF773F981
:1010B000206D20F0010020654846EEE710B504469B
:1010C000AFF300802046BDE81040FFF76EB810B5C2
:1010D00000F078F9BDE8104000F06EB900487047A4
:1010E00018050020704770477047704738B50446B0
:1010F0000A4600206946AFF30080002808BF38BDCB
:1011000002460099204600F084F9012038BD0120F4
:1011100000F0D3B9F8B5AFF30080054600200C46C7
:10112000102000BF0646A819A0420DD932466946D4
:101130000020AFF30080070008BF00F0BEF9009860
:10114000A04218BF0546C419FFF7C8FF056007464F
:10115000F01D20F007004619284600F053F9B4426C
:1011600008BFF8BDA21B31463868BDE8F84000F062
:1011700050B970B50646FFF7B1FF056806F10B00E0
:1011800020F00704B4429CBF002070BD2B466A6863
:10119000BAB11068A04210D304F1080188423CBFE4
:1011A0005068586007D35168101941601168091BD5
:1011B000016058601460101D70BD13465268002A0B
:1011C000E7D121462846FFF791FF0028DED170BD08
:1011D0002DE9F041044616460D464769007B80071D
:1011E0002ED0384603F0FEFD50BB3EB3012E02D098
:1011F000022E25D104E0204600F025F905441DE02B
:10120000384603F0E9FDE168002841F01001E16093
:1012100005DA204600F058F80120BDE8F081C90346
:101220000BD56268E16A914200D81146A269114467
:101230002269891A814200DD08460544002D01DA41
:101240000220EAE7E16A6068E268814206D291031F
:10125000E06203D522F4003141F01002A6690027B4
:10126000AE4213DCE16A814201D90B4600E003463D
:1012700003EB060C2369ACEB030CAC4506DD8142A5
:1012800001D98C4600E084469C4505D1A7602760C3
:1012900042F02000A5620DE0AD1BE669AE1B814265
:1012A000A66000D90846C01A281A20605819606044
:1012B00022F0200003490840E060002084F84870D4
:1012C000ABE70000BFCFD7FFC16821F4001141F0A8
:1012D0008001C16000218160016070472DE9F04705
:1012E000814614460E464FF0FF383248D56857699C
:1012F000054209D03846A16903F0AEFD002811DB94
:101300002C48C0430540E5602B46324649463846E6
:1013100003F0A5FDA16920F00042B21A1144002893
:10132000A16103D02046FFF7CFFF4046BDE8F0871C
:1013300070B504460569C06A6168884200D80846ED
:10134000E16821F42011E160C90312D5A84208D058
:101350002246411B2846FFF7C1FF10B14FF0FF3076
:1013600070BD0020E562C4E90150E06820F48030DF
:10137000E060002070BD10B50446C06820F0200079
:10138000E060A16AA06988420DD02046FFF7D0FF37
:10139000E06820F4405040F01000E060A06AA061D6
:1013A0002069E062606044F24001E0688843E060E8
:1013B00010BD000010000200002801D000F01CB891
:1013C0007047000010B5014602A000F05DF8012052
:1013D00010BD000053494752545245443A205265CB
:1013E0006469726563743A2063616E2774206F705C
:1013F000656E3A200000000001491820ABBEFEE7F0
:101400002600020000210160C0E901107047102091
:101410007047034640688C46002818BF88423CBF8E
:1014200003464068F8D318681844884207D00CF186
:10143000030020F00700001D411A521A0146081D42
:101440000A60FFF76ABC10B50146C268900703D076
:10145000900607D5886A0AE000F03EF80121016095
:10146000881E10BD8B69486818440B69C01A91F832
:1014700048301BB191F84910401A10BD1103FCD53A
:101480000028FADD401E10BD70B505460C460A2046
:1014900000E06D1C00F018F835B128780028F8D16C
:1014A00002E0641C00F010F814B120780028F8D194
:1014B000BDE870400A2000F007B810B500F010F841
:1014C000BDE81040FFF778BF08B569468DF8000009
:1014D0000320ABBE08BD70470048704710050020D0
:1014E00010B5012805D0002103A0FFF7CDFF012092
:1014F00010BD09A1F8E7000053494752544D454D2E
:101500003A204F7574206F662068656170206D65A4
:101510006D6F7279000000003A2048656170206D9F
:10152000656D6F727920636F727275707465640097
:101530005FEA400C08BF91F0000F4FEA8C234FEA9E
:10154000C12243EA51514FEA1C5018BF00F5F04048
:101550004FEA300018BF41F000415FEA6C5C00F0D8
:101560002980BCF1FF3F08BF40F080407047130C5A
:1015700006BF12044FF0100C4FF0000C130E04BF06
:1015800012020CF1080C130F04BF12010CF1040C31
:10159000930F04BF92000CF1020CD30F04BF520052
:1015A0000CF1010C11464FF00002A0F11F00A0EB5E
:1015B0000C00704711F0004F08BF704731F0004138
:1015C0003FF4D5AF0B0C06BF09044FF0100C4FF0E1
:1015D000000C0B0E04BF09020CF1080C0B0F04BF2A
:1015E00009010CF1040C8B0F04BF89000CF1020CF3
:1015F000CB0F04BF49000CF1010CCCF12003A0EB90
:101600000C0022FA03F302FA0CF241EA030100F1A2
:101610000100704720F07F4C80EA030023F07F47F1
:10162000ACEB070303F57C5300F0004003F1FF032C
:101630002DE980494FEA154B09B44FEA144325EAD6
:101640000B4E24EA03480FF2042606EB1327490841
:101650003E785FEA320203FB0667C7F5000707FB27
:1016600006F64FEA54374FEAD64606F1020607FB64
:10167000066CCCF1005C4FEA1C472CEA074C07FBD8
:1016800006F40CFB06F504EB15464FEA961634BF3C
:1016900000204FF000404FEAD13706FB07FC4FEA2D
:1016A0001C4C0CFB0BF7D21B03FB0CF761EB070187
:1016B0000CFB0EF7B0EB074072EB17420CFB08F780
:1016C00034BFA2EB0742B2EB074261EB17414FEA8E
:1016D0000C444FEA910706FB07FC4FEA1C4C0CFB3D
:1016E0000BF7B0EBC74072EB573203FB0CF734BF7C
:1016F000A2EBC742B2EBC74261EB57310CFB0EF7CE
:10170000B0EBC70072EB57720CFB08F734BFA2EBCB
:10171000C702B2EBC70261EB5771039F4FEA8161C9
:1017200041EA921104EBCC044FEAD1374FEA8262CE
:1017300006FB07FC42EA90124FEA80604FEA1C4C1D
:101740000CFB0BF7D21B03FB0CF761EB07010CFB47
:101750000EF7B0EB074072EB17420CFB08F734BFF3
:10176000A2EB0742B2EB074261EB17414FEA8C55FF
:101770004FEA910704EB9C2406FB07FC4FEA1C4C44
:101780000CFB0BF7B0EBC74072EB573203FB0CF7C7
:1017900034BFA2EBC742B2EBC74261EB57310CFB3F
:1017A0000EF7B0EBC70072EB57720CFB08F734BFB3
:1017B000A2EBC702B2EBC70261EB577115EB4C25E8
:1017C0004FEA816141EA92114FEA82624FEAD137D2
:1017D00042EA901206FB07FC44F100044FEA8060E5
:1017E0004FEA1C4C0CFB0BF7D21B03FB0CF761EB15
:1017F00007010CFB0EF7B0EB074072EB17420CFB36
:1018000008F734BFA2EB0742B2EB074261EB174186
:1018100015EB1C154FEA813141EA92414FEA8232C1
:1018200042EA90424FEA80304FEA0C7644F10004DD
:1018300048EA03434EEA0B484FF0000EB2EB080CA7
:1018400071EB030724BF624639464EEB0E0E4FF094
:10185000000B0018524149414BEB0B0BB2EB080C4B
:1018600071EB03077BF1000B24BF624639464EEB58
:101870000E0E4FF0000B0018524149414BEB0B0B81
:10188000B2EB080C71EB03077BF1000B24BF62463F
:1018900039464EEB0E0E51EA020718BF46F001061C
:1018A00016EB0E7655F1000254F1000103D5BDE8A8
:1018B0008901BDE80088BDE88901BDE80048B61986
:1018C000524141EB0101A3F10103704780807F7E0B
:1018D0007D7C7B7A797877767675747372717170A6
:1018E0006F6E6E6D6C6C6B6A6A6968686766666558
:1018F0006464636362616160605F5F5E5E5D5D5CE6
:101900005C5B5B5A5A595958585757565655555556
:101910005454535352525251515050504F4F4F4EB6
:101920004E4D4D4D4C4C4C4B4B4B4A4A4A49494904
:101930004848484747474746464645454544444446
:10194000444343434342424242414141002B9C466F
:1019500030D477002BD01CB54FEA370703B44FF0D3
:1019600010004FF01001BAF1000F06D0BCF1000FCB
:10197000DCBF40F0080040F008014FF000000FBC51
:10198000BDE810400BF1010BBBF1010F08BF5FEA8E
:10199000170722BF12F1010211F101014FF00041BE
:1019A00043F1000300F0004043EA00007047F9D320
:1019B0005708D0E746EA064613F1400F4FEA1646AD
:1019C0001FDD13F1200FDFBF16430A46002120332D
:1019D0005B42BED0C3F1200746EA064602FA07F78B
:1019E0004FEA164646EA0706C3F1200722FA03F239
:1019F00001FA07F721FA03F14FF0000342EA070268
:101A0000A7E746EA020646EA06464FEA164646EACF
:101A10000106BCBF46EA0646360C4FF000034FF005
:101A200000024FF0000194E72DE9804C9A4693465E
:101A300070B491E8380007C831EA400C48BF34EA76
:101A4000430C03D5FFF7E6FDFFF780FFF0BCBDE8D0
:101A5000008C2DE9804C9A46934670B491E838008A
:101A600007C810F0804F08BF13F0804F03D100F07B
:101A700005F8FFF76BFFF0BCBDE8008C20F07F4756
:101A800080EA030023F07F4C07EB0C03A3F57C53A3
:101A900000F00040A3F1FE0392F0000F00F0B380CD
:101AA00095F0000F00F077802DE901494FEA1140D1
:101AB0004FEA144621EA004800FB06FC24EA0647E8
:101AC00008FB06F607FB08F800FB07F718EB0648CB
:101AD0004CEB164C4FEA124B18EB07484FEA1546F1
:101AE0004CEB174022EA0B4E0BFB06FC25EA06479F
:101AF0000EFB06F607FB0EFE0BFB07F71EEB064E72
:101B00004CEB164C4FF000061EEB074E4CEB174B00
:101B100018EB0B0840F1000018EB0E0B58EB000817
:101B200040F100008F1A4FF000013CBFC943661B13
:101B300014BFB5EB040C00213CBFC943F61B4FEAB0
:101B400017444EEA8E0E27EA04454FEA1C4704FB71
:101B500007622CEA074C05FB07F70CFB05F604FBB4
:101B60000CFC16EB074642EB174216EB0C4642EB19
:101B70001C421BEB060658EB0202414146EA9E0658
:101B800001D5BDE80189B619524141EB0101A3F12C
:101B90000103BDE801894FEA14454FEA114724EAE1
:101BA000054621EA074C05FB07F406FB07F70CFB8B
:101BB00006F105FB0CFC11EB074144EB17444FEA1F
:101BC000124711EB0C4144EB1C4422EA074C05FB85
:101BD00007F206FB07F70CFB06F605FB0CFC16EB01
:101BE000074642EB174216EB0C4642EB1C456A18BF
:101BF00054F1000148BF7047B619524141EB010151
:101C0000A3F10103704795F0000F37D04FEA11425E
:101C10004FEA144721EA024624EA074C02FB07F187
:101C200006FB07F70CFB06F402FB0CFC14EB074465
:101C300041EB17414FEA154714EB0C4441EB1C41B3
:101C400025EA074C02FB07F506FB07F70CFB06F637
:101C500002FB0CFC16EB074645EB174516EB0C4652
:101C600045EB1C42121951F1000148BF7047B619EB
:101C7000524141EB0101A3F1010370474FEA1445C2
:101C80004FEA114724EA054621EA074C05FB07F114
:101C900006FB07F70CFB06F24FF0000605FB0CFCF9
:101CA00012EB074241EB174112EB0C4251EB1C4186
:101CB00048BF7047921841EB0101A3F1010370473F
:101CC000FEE770B514460D46064603F07DFB01D2D3
:101CD000284670BD2146304603F076FC01D22046EE
:101CE00070BD304670BD704710B5074C00212246CC
:101CF000FFF7E7FF214603F085FA044903F098FB5C
:101D000003F042FB80B210BD0000C84200FF7F47D5
:101D100010B590F821100022022905D0042181631A
:101D200080F82020012010BD01680B6823F00E030D
:101D30000B6001680B6823F001030B6090F84030E2
:101D4000C46B012101FA03F3636080F8211080F86D
:101D50002020104610BD000010B590F8211000247E
:101D6000022903D00421816301243DE001680A684F
:101D700022F00E020A6001680A6822F001020A607D
:101D80001A4A0168914201D1012121E0174A143217
:101D9000914201D110211BE0144A2832914201D115
:101DA000891515E0114A3C32914201D189140FE0A6
:101DB0000E4A5032914202D14FF4803108E00B4A72
:101DC0006432914202D14FF4801101E04FF08071F2
:101DD000064A083A5160012180F82110002180F85C
:101DE0002010416B01B18847204610BD0800024019
:101DF00090F82100704700002DE9F84FDFF8B89106
:101E00000024A9F1040B23460F2709F1040AABF1C2
:101E1000040EC9E00125A5402A40AA427DD1674EA3
:101E2000D1F804C0ACEB0608B44532D014DCBCF1E8
:101E3000030F3AD009DCBCF1000F2AD0BCF1010F2E
:101E40001CD0BCF1020F31D11DE0BCF1110F17D035
:101E5000BCF1120F2AD119E0B8F5881F19D006DCA1
:101E6000B8F5803F15D0B8F5801F1FD111E0B8F547
:101E7000001F0ED0B8F5041F18D10AE0CB6815E09A
:101E8000CB681B1D12E0CB6808330FE0CB680C3326
:101E90000CE08B682BB1012B4FF0080303D0456198
:101EA00004E0042302E0056100E00023FF2A01D8DA
:101EB000064601E000F104064FEA840501D9A5F1C8
:101EC0002005D6F8008007FA05FC28EA0C0803FA7A
:101ED00005F548EA0508C6F800804D68ED0062D5B2
:101EE000374DAE6946F00106AE61AD6924F00306D8
:101EF00005F001050095334D06EB050CDCF80850A4
:101F0000A607360F07FA06F825EA0805DFF8B880B5
:101F1000404503D14FF0000817E044E0DFF8AC8003
:101F2000404502D14FF001080FE0DFF8A4804045A2
:101F300002D14FF0020808E0DFF89880404502D156
:101F40004FF0030801E04FF0040808FA06F848EAE9
:101F50000508CCF808804D68D9F80060ED024D46C0
:101F600001D5164300E096432E604D68DAF8006014
:101F7000AD02554601D5164300E096432E604D68EC
:101F8000DBF80060AD035D4601D5164300E09643E3
:101F90002E604D68DEF80060ED03754601D51643EE
:101FA00000E096432E60641C0D682A46E5407FF4ED
:101FB00031AFBDE8F88F00000804014000001110A7
:101FC000001002400000014000080140000C0140E8
:101FD00000100140001401400AB10161704709047A
:101FE000FBE7000001488068704700000000002007
:101FF000704770472DE9F041016804464A694E6810
:1020000090F83E000025D743FA050BD4F243D205E1
:1020100008D46FF4807201254A6121680A6842F48D
:1020200000420A60B90508D4F143C90505D4226805
:102030006FF4007145F002055161790525D4F14333
:10204000C90522D4638D94F83D10226B202808D155
:102050003BB9212910D029290ED0282901D1212AC4
:102060000AD022686FF48061516145F004051028A0
:1020700006D0402804D008E0204601F0D5FF04E057
:102080002068016841F400710160380508D4F0430C
:10209000C00505D421686FF4006045F0080548616B
:1020A000002D07D0206C284320642046BDE8F04175
:1020B00001F028BCBDE8F0812DE9F047026800215D
:1020C0005368C66A90F83E4090F83D50102C12D0EC
:1020D000402C10D0046C002C7DD05469E443A6073A
:1020E0007AD4DE43B60577D4036C03B19169BDE8B9
:1020F000F04701F075BF976951694FF42A0CC94345
:102100005FEAC1784FF02A4904D066452AD04E458F
:1021100028D010E0DE43B6050DD4C16A614501D177
:10212000012103E0C16A494501D10821C162BDE82E
:10213000F04701F0BBBE0E0716D4DE43B60513D43C
:10214000416CC9B21161416B09B1896A29B9816BCE
:10215000002907D0896A002904D00068416841F449
:1021600000614160BDE8F0878E0706D4DE43B60506
:1021700003D4BDE8F04701F0EDBDFE435268760799
:102180004FEA02521DD4002AECDB0A0608D4DA43D7
:10219000520505D4490705D5BDE8F04701F07EBDDD
:1021A0004907DFD4D9438905DCD4212D05D0402C43
:1021B000D8D1BDE8F04701F0BFBEBDE8F04701F05F
:1021C0002BBD002ACEDB4A060BD4DA43520508D4D5
:1021D000490708D501E00DE00EE0BDE8F04701F049
:1021E000A7BC4907BED4D9438905BBD4BDE8F04795
:1021F00001F034BC916970E7E10606D4D943890542
:1022000003D4BDE8F04701F057BF2821212D27D086
:10221000292D25D0650655D4DD436D0552D46407BC
:1022200052D590F83D30448D002C9BD01269446A01
:102230002270426A521C4262428D521E4285428D79
:10224000002A8FD12A2B8DD10268536823F4806332
:1022500053602222026380F83D1000F07BF981E791
:10226000250623D4DD436D0520D4640720D590F8DE
:102270003D30448D002CF2D0446A24781461426AC7
:10228000521C4262428D521E4285428D002AE6D186
:10229000292BE4D10268536823F480635360212220
:1022A000026380F83D1000F056F95BE76107D6D471
:1022B000D9438905D3D4418D0029D0D0416A09780A
:1022C00011610AE06107CAD4D9438905C7D4418D99
:1022D0000029C4D01169426A1170416A491C4162E7
:1022E000418D491E41853DE77047000070B50400EF
:1022F00025D094F83D00002520B984F83C502046B4
:1023000000F0BEF8242084F83D002068016821F028
:10231000010101602068016841F40041016020680A
:10232000016821F40041016000F044FA4D4A6168FF
:10233000914201D84C4900E04C49884201D2012029
:1023400070BD4B492368B0FBF1F15E6826F03F0693
:102350000E435E606368934206D94FF49673594307
:102360004FF47A73B1FBF3F12368491C1E6A26F01F
:102370003F06314319626168914210D84900401EFE
:10238000B0FBF1F2521CC2F30B02042A01D204206A
:1023900022E0B0FBF1F0401CC0F30B001CE0A2688F
:1023A000F2B301EBC10303EB0116431EB3FBF6F3DB
:1023B0005B1C43F480431B0549D092B301EBC1027F
:1023C00002EB0111401EB0FBF1F0401CC0F30B000A
:1023D00040F4804040F400402168CA694CF6FF7325
:1023E0009A431043C861D4E907100143206802688A
:1023F00022F0C00211430160D4E9030101432068C7
:10240000826848F2FF339A4311438160D4E90501A1
:1024100008432168CA6822F0FF021043C86001E047
:102420000EE016E02068016841F0010101602564BA
:10243000202084F83D00256384F83E50002070BDC4
:1024400001EB4106431EB3FBF6F35B1CB3E701202F
:10245000C2E701EB4101401EB0FBF1F0401CC0F3AC
:102460000B00B7E7A086010080841E0000093D0034
:1024700040420F0070477047704770477047000038
:1024800030B585B0002100910191029103912D4D4D
:1024900003682D4C122103222C48AB4225D1A3699D
:1024A00043F00803A361A369039203F008030493B4
:1024B000C023CDE900316946FFF79EFCE06940F496
:1024C0000010E061E069002200F400100490114661
:1024D0001F2000F0A7F81F2000F096F800221146F8
:1024E000202000F09FF8202028E0194DAB4227D192
:1024F000A36943F00803A361A369039203F00803EF
:1025000004934FF44063CDE900316946FFF774FC52
:10251000E06940F48000E061E069002200F480009E
:1025200004901146212000F07DF8212000F06CF885
:1025300000221146222000F075F8222000F064F8F5
:1025400005B030BD0054004000100240000C0140B6
:102550000058004070477047024881680278114473
:102560008160704700000020074810B5016841F005
:1025700010010160032000F075F80F2000F006F84C
:1025800000F024F8002010BD0020024070B50D4D71
:1025900004464FF47A712878B1FBF0F00A490968D3
:1025A000B1FBF0F000F0DDFC48B9102C07D200229E
:1025B0002146501E00F036F800206C6070BD0120EE
:1025C00070BD0000000000200C0000200C4808B581
:1025D000816941F001018161816901F0010100918E
:1025E000C16941F08051C161C06900F08050009024
:1025F0000448416821F0E06141F00071416008BD8C
:102600000010024000000140002809DB00F01F021A
:10261000012191404009800000F1E020C0F8001144
:1026200070470000F0B40E4B1B680C46C3F3022346
:10263000C3F10705042D00D90425191D072901D26E
:10264000002300E0DB1E012606FA05F1491E2140A9
:1026500099409E40761E16403143F0BC02F099BB73
:102660000CED00E0064900F0070208684FF6FF0392
:10267000184040EA0220034A1043086070470000F7
:102680000CED00E00000FA052DE9F0470F460500CB
:1026900061D0434E306800F00700B84209D230687C
:1026A00020F0070038433060306800F00700B8427F
:1026B00051D128683B4C810712D5400703D560688B
:1026C00040F4E06060602878000703D5606840F45B
:1026D000605060606068A96820F0F00008436060A6
:1026E0002878C00728D06868012810D021680228FF
:1026F00010D0890700292EDA616821F00301014317
:102700006160FFF76FFC804641F288390DE0216877
:102710008903EFE78901EDE7FFF764FCA0EB08010F
:10272000494502D90320BDE8F0876068696800F078
:102730000C00B0EB810FEFD1306800F00700B84219
:102740000BD9306820F0070038433060306800F063
:102750000700B84201D00120E5E72878400705D5F9
:102760006068E96820F4E06008436060287800074A
:1027700006D56068296920F4605040EAC1006060B5
:1027800000F038F86168084AC1F30311515CC84091
:102790000649086006480068FFF7F8FE0020C2E717
:1027A00000200240001002402C5700080C000020BE
:1027B000040000200448054900684968044AC1F340
:1027C0000221515CC84070470C00002000100240FC
:1027D0003C5700080448054900684968044AC1F3A9
:1027E000C221515CC84070470C000020001002401C
:1027F0003C5700080E4A51680E4801F00C03042BA8
:1028000011D0082B0FD10C48C1F38343C903C05C1E
:102810000AD55168084AC1F34041921E515C054AED
:102820005043B0FBF1F07047044948437047000043
:102830000010024000127A001C57000800093D00F9
:102840002DE9F84F040070D02078C04DC00749D062
:102850006868C0F38100012807D06868C0F3810070
:10286000022809D16868C00306D52868800339D5D5
:1028700060680028E7D035E06068B0F5803F0BD095
:1028800010B1B0F5A02F11D0286820F48030286056
:10289000286820F4802002E0286840F48030286016
:1028A000606890B1FFF79EFB06460AE0286840F496
:1028B00080202860F0E700BFFFF794FB801B6428AE
:1028C00073D828688003F7D50CE0FFF78BFB06462A
:1028D00005E000BFFFF786FB801B6428F0D828685E
:1028E0008003F7D420789A4E80074FF001094FF00B
:1028F000000839D5686810F00C0F07D06868C0F37D
:102900008100022809D16868C00306D428688007BE
:1029100014D52069012808D110E02069B0B1C6F8AB
:102920000090FFF75FFB074605E00AE1FFF75AFB5F
:10293000C01B0228C4D828688007F7D528686169B9
:1029400020F0F80040EAC10028600DE0C6F80080E1
:10295000FFF748FB074604E0FFF744FBC01B0228D3
:1029600023D828688007F7D4207800072CD5794829
:10297000A169D9B1C0F80090FFF734FB074604E025
:10298000FFF730FBC01B02280FD8686A8007F7D515
:1029900071484FF4FA510068B0FBF1F0009000BFAD
:1029A0000098411E0091FAD20EE080E0C0F800804D
:1029B000FFF718FB074604E0FFF714FBC01B0228D3
:1029C00075D8686A8007F7D42078400760D5E86931
:1029D0000027C00008D4E86940F08050E861E86949
:1029E000012700F0805000905C480168C90513D4AD
:1029F0000168834641F480710160FFF7F3FA824673
:102A000006E000BFFFF7EEFAA0EB0A0064284ED8FC
:102A1000DBF80000C005F5D5E06801280AD008B150
:102A2000052813D0286A20F001002862286A20F0C7
:102A3000040002E0286A40F001002862E06841F2E8
:102A4000883B98B1FFF7CEFA82460BE0286A40F047
:102A500004002862EEE700BFFFF7C4FAA0EB0A010A
:102A600059455AD8286A8007F6D50CE0FFF7BAFA1C
:102A7000824605E0FFF7B6FAA0EB0A0159454CD8AB
:102A8000286A8007F6D41FB1E86920F08050E86119
:102A9000E06988B36968C1F38101022944D0022842
:102AA000C6F8608004D0FFF79DFA044638E034E0B1
:102AB000FFF798FA074604E0FFF794FAC01B0228D4
:102AC0002BD828688001F7D4206AB0F5803F05D163
:102AD0006868A16820F4003008436860D4E9080100
:102AE0000843696821F4741108436860C6F860906F
:102AF000FFF778FA044606E025E000BFFFF772FA18
:102B0000001B022809D828688001F7D51BE000BF08
:102B1000FFF768FA001B022802D90320BDE8F88FEE
:102B200028688001F4D40EE00128F7D06868226A92
:102B300000F48031914204D1616A00F4701088423F
:102B400001D00120EAE70020E8E700000010024081
:102B500000004242800442420C000020007000400D
:102B60007047000038B50446006842688168C94370
:102B70004B0606D5CB0704D1D3435B0601D4216CA9
:102B800005E08B0708D4D3431B0605D4616C01B064
:102B90002046BDE8304008478B0601D54B0646D499
:102BA000D3439B0643D44B060AD494F85130032BED
:102BB0003ED0636D43F004036365C368836800938C
:102BC000890609D4616D41F0010161658168009158
:102BD000016821F040010160606D002827D0206865
:102BE000416821F0E0014160012084F85100900724
:102BF00022D02068416821F003014160104DE06C53
:102C000040B14563E06CFFF7A7F818B1606D40F084
:102C100040006065A06C002809D04563A06CFFF7F8
:102C20009BF8002803D0606D40F04000606538BD1F
:102C3000C1688068009038BD2046FFF791FF38BD1D
:102C4000BD47000870B5040009D0606A002540B196
:102C500025616561A56294F8510040B10CE0012046
:102C600070BD6068B0F5827FF4D0E561F2E784F86A
:102C70005050204600F040F8022084F851002068AF
:102C8000016821F040010160A088218900F4827070
:102C900001F404410843A18901F400610843217C47
:102CA00001F002010843217D01F001010843218B5D
:102CB00001F400710843217F01F03801084394F8C2
:102CC000201001F080010843218D01F400510843D8
:102CD00021680860A069042101EA10402168486069
:102CE0002068C16921F40061C1616565012084F833
:102CF0005100002070BD000010B586B00021009189
:102D000001910291039100681749884229D117481F
:102D1000816941F480518161816901F4805104919C
:102D2000816941F0040181618069114C00F0040067
:102D30000490B020009069462046FFF75DF84020DF
:102D40000090022001900320039069462046FFF77F
:102D500053F8002211462320FFF764FC2320FFF7DD
:102D600053FC06B010BD00000030014000100240CE
:102D7000000801402DE9FF4F81B0044690F8500053
:102D800000260E9F1D4693464FF0010901280FD0E3
:102D90004FF0010A84F850A0FFF724F9804694F818
:102DA0005100616801280DD0B1F5827F08D103E0A0
:102DB000022005B0BDE8F08FA16809B9042801D050
:102DC0000226C9E00298002865D0BBF1000FFBD0B5
:102DD000002DF9D094F85100042802D0052084F881
:102DE000510000206065C4F838B0E587A5870299D6
:102DF0002163E586A5862064606420680168490631
:102E000003D4016841F040010160E068B0F5006F53
:102E1000606803D0F0B3012D47D081E008B1012DE7
:102E20003CD1206B21680088C860206B801C206327
:102E3000E08E401EE08631E02068816889070FD56A
:102E4000E18E69B1B9F1010F0AD1216B0988C16026
:102E5000206B801C2063E08E401EE0864FF000094E
:102E600020688168C9070CD0E18F51B1C068A16B9F
:102E70000880A06B801CA063E08F401EE0874FF0AD
:102E80000109FFF7AFF8A0EB0800B84206D3781CA1
:102E900004D001E009E05BE003265BE0E08E00285F
:102EA000CAD1E08F0028C7D140E0206B21680078AC
:102EB0000873206B401C2063E08E401EE0862FE0EC
:102EC0002068816889070FD5E18E69B1B9F1010FDA
:102ED0000AD1216B09780173206B401C2063E08EBE
:102EE000401EE0864FF0000920688168C9070CD0B9
:102EF000E18F51B1C068A16B0870A06B401CA0634A
:102F0000E08F401EE0874FF00109FFF76BF8A0EB60
:102F10000800B84202D3781C02D0BAE7002FB8D01C
:102F2000E08E0028CCD1E08F0028C9D14246394636
:102F3000204601F04BFC18B10126202060650BE013
:102F4000A06818B92068C16880680090606D08B1F9
:102F5000012601E084F851A0002084F8500030469A
:102F600027E710B5401EB0F1807F01D3012010BDCE
:102F70004FF0E02460610F21601701F00AFF00208C
:102F8000A06107202061002010BD10B590F83C2002
:102F9000012A22D0012280F83C20CA688C6822F4E1
:102FA000407222434C6822F4806222430C6822F46F
:102FB000006222430C6922F4805222434C6922F4BD
:102FC00000522243C969002322F480420A43016867
:102FD0004A6480F83C30002010BD022010BD000083
:102FE00070B590F83C20012A26D0012480F83C409E
:102FF000022280F83D2003685A689D6822F070061E
:103000000A6832435A600D4B02689A4208D0B2F106
:10301000804F05D00A4B9A4202D00A4B9A4204D103
:10302000496825F080031943916080F83D400021F4
:1030300080F83C10084670BD022070BD002C014095
:10304000000400400008004010B5040003D094F8CC
:103050003D0010B107E0012010BD002084F83C00C5
:10306000204600F01FF8022084F83D00211D206852
:1030700001F06CFC012084F8460084F83E0084F8DE
:103080003F0084F8400084F8410084F8420084F84E
:10309000430084F8440084F8450084F83D00002093
:1030A00010BD000008B5174A01681748914207D1C2
:1030B000816941F400618161806900F4006014E07D
:1030C000B1F1804F0AD0114A914210D1C16941F04B
:1030D0000201C161C06900F0020006E0C16941F06F
:1030E0000101C161C06900F00100009008BD084AFB
:1030F0009142FBD1C16941F00401C161C06900F096
:103100000400F2E7002C01400010024000040040DF
:103110000008004070B5044690F83C0000250128E6
:1031200017D0012684F83C60022084F83D00206816
:10313000826822F0770222F47F4282600868502879
:1031400038D00DDC20284FD005DC90B3102811D1E9
:103150004AE0022070BD302846D040280AD13BE02A
:1031600060282FD070280DD0B0F5805F03D0B0F567
:10317000005F12D0012584F83D60002084F83C00F7
:10318000284670BDCB68D1E90121206801F021FCFF
:103190002068816841F0770109E0CB68D1E901211D
:1031A000206801F016FC2068816841F4804181604C
:1031B000E1E719E0CA684968206801F0BFFC5021C6
:1031C000206806E0CA684968206801F0C8FC6021F0
:1031D000206801F008FCCEE7CA684968206801F061
:1031E000ADFC40212068F4E7226801461046F0E774
:1031F00030B585B0002100910191029103912C4DD1
:1032000004682C49022203232B48AC420AD18C6962
:1032100044F004048C61896901F0040104914FF4C5
:10322000E0612AE0B4F1804F1ED0244884422CD1C2
:10323000886940F0100088618869694600F01000D4
:1032400004904FF47070CDE9000203931C48FEF720
:10325000D3FD1C48416821F4406141F0E06141F434
:103260004061416005B030BD8C6944F004048C615C
:10327000896901F0040104910E21CDE90012039344
:103280004FEA0D01FEF7B8FDECE70F488442E9D1A3
:10329000886940F0080088618869694600F0080084
:1032A00004904FF44070CDE9000203930748E9E72A
:1032B000002C0140001002400008014000040040C2
:1032C000001001400000014000080040000C0140D7
:1032D00070B5044690F83C0000260D4601280FD03A
:1032E000012084F83C006AB1042A1DD0082A2FD09E
:1032F0000C2A3FD00126002084F83C00304670BDE7
:10330000022070BD206801F077FB2068816941F0E0
:10331000080181612068816921F0040181612068D0
:1033200081692A69114311E0206801F08DFB206852
:10333000816941F4006181612068816921F48061C3
:103340008161206881692A6941EA02218161D2E7AD
:10335000206801F0A5FB2068C16941F00801C16146
:103360002068C16921F00401C1612068C1692A692E
:10337000114311E0206801F0BFFB2068C16941F4EE
:103380000061C1612068C16921F48061C161206868
:10339000C1692A6941EA0221C161ACE710B50400A4
:1033A00003D094F83D0010B107E0012010BD0020CB
:1033B00084F83C00204600F01EF8022084F83D000E
:1033C000211D206801F0C2FA012084F8460084F82B
:1033D0003E0084F83F0084F8400084F8410084F8FF
:1033E000420084F8430084F8440084F8450084F8DF
:1033F0003D00002010BD704710B50446022249B1BF
:1034000004290ED0082913D094F84100012816D0C1
:10341000012010BD94F83E000128F9D184F83E2027
:103420000FE094F83F000128F2D184F83F2008E033
:1034300094F840000128EBD184F8402001E084F8A2
:1034400041200122206801F0B7FA0F492068884224
:1034500003D1426C42F4004242642068884208D0A2
:10346000B0F1804F05D00949884202D0084988420E
:1034700004D1816801F00701062903D0016841F0F9
:1034800001010160002010BD002C0140000400403B
:103490000008004070477047F8B5016804460868A6
:1034A000CA684B6910F00F0F4FF0000559D003F0B8
:1034B000010602F49077374365D0C10705D0D105E6
:1034C00003D5616C41F001016164410705D5D9075D
:1034D00003D0616C41F002016164810705D5D90711
:1034E00003D0616C41F004016164010707D502F06B
:1034F0002001314303D0616C41F008016164616CCB
:1035000000293AD0800604D5900602D5204601F065
:1035100067FB20684069616CC0F38010090700D424
:1035200060B3204601F035FB20684069400621D594
:103530002068143050E8001F21F0400140E80012DC
:10354000002AF5D1E06BA8B16D494163E06BFEF74D
:1035500003FC002811D0E06B416B01B0BDE8F040E6
:10356000084783060FD593060DD52046BDE8F840E1
:1035700001F036BB2046FFF78EFFF8BD2046FFF76F
:103580008AFF6564F8BD266B2023012E7CD1C60618
:103590007AD5D60678D508684868009048694FF013
:1035A0000206400640D5E16B086840680004000C44
:1035B000E8D0A28D8242E5D9E085886920282DD007
:1035C00020680C3050E8001F21F4807140E80012A0
:1035D000002AF5D12068143050E8001F21F00101C5
:1035E00040E80012002AF5D12068143050E8001F8E
:1035F00021F0400140E80012002AF5D184F8423061
:10360000256320680C3050E8001F21F0100140E8CD
:103610000012002AF5D1E06BFEF77AFB6663A08DFD
:10362000E18D401A81B22AE0A08DE18D401A81B26D
:10363000E08D0028A6D00029A4D022680C3252E8E0
:10364000000F20F4907042E80007002FF5D12068A9
:10365000143050E8002F22F0010240E80027002F2C
:10366000F5D184F84230256320680C3050E8002FF3
:1036700022F0100240E80023002BF5D166632046BB
:10368000FFF708FFF8BDFFE705062BD5150629D57E
:1036900094F841002128F5D1A068B0F5805F01D1F0
:1036A0002069B0B1206A411C21622168007848601D
:1036B000E08C401E0004000CE084E3D12068C16867
:1036C00021F08001C1602068C16841F04001C16003
:1036D000D8E7206A0088C0F308004860206A801C90
:1036E0002062E5E74006CDD55006CBD5CA68204616
:1036F00022F04002CA6084F8413000F082F8C1E74D
:10370000834B000870B5040004D094F841000025F4
:1037100010B106E0012070BD84F84050204600F052
:1037200023F8242084F841002068C16821F4005166
:10373000C160204601F0B6FA2068016921F4904189
:1037400001612068416921F02A0141612068C16856
:1037500041F40051C1606564202084F8410084F880
:1037600042006563002070BD30B585B00024009430
:1037700001940294039400681D49884235D11D4884
:10378000C16941F48021C161C16901F480210491C2
:10379000816941F0100181618069174D00F01000CE
:1037A00004904FF480600090022001900320039069
:1037B00069462846FEF720FBE814CDE90004694677
:1037C00028460294FEF718FB0C48416821F03001AE
:1037D00041F0E06141F010014160002211462720D4
:1037E000FEF720FF2720FEF70FFF05B030BD0000D9
:1037F000004800400010024000100140000001405D
:1038000070477047FEE700000148FEF7F3BB000079
:10381000AC0100200148FEF74FBC0000AC010020C5
:103820000148FEF7E7BB0000000200200148FEF758
:1038300043BC00000002002038B5406A002190F827
:103840003D202B4B46F2A8141B68B3FBF4F3C3EBEB
:10385000C30303EB830300933BB15B1E0093036838
:103860001B689B0505D5009BF6E7036C43F020031E
:103870000364436B03B19962836B03B1996203687C
:103880001C6824F480641C604185436B03B1596358
:10389000836B03B1596303681C6824F001041C6046
:1038A00090F83D402023602C0BD0282434EA0202FB
:1038B0000FD080F83D3080F83E1000BFFEF714FDB9
:1038C00038BD80F83D3080F83E100164FEF790FB73
:1038D00038BD0268136843F001031360026813687F
:1038E00043F480631360016380F83D40E6E7000025
:1038F0000C00002000684169C943090601D4002179
:103900000161704770B5044690F83D0094F83E1090
:10391000102901D0402906D1222804D121680A6843
:1039200022F400620A60282131EA00024FF000050B
:103930004FF0200626D021684968090505D4602883
:1039400003D084F83D6084F83E50256320684168C8
:10395000090537D5416821F400614160606B90F83A
:1039600021203C49012A11D04163606BFEF7F4F934
:1039700038B32068016821F00101016084F83D60DE
:10398000606B1CE0256384F83D10DFE7A06B4163AA
:10399000A06BFEF7E1F9A0B120684169C94349066F
:1039A00005D40069616A0870606A401C6062206822
:1039B000016821F00101016084F83D60A06B416B5A
:1039C000884710E094F83D10602910D04169C94340
:1039D000490605D40069616A0870606A401C60622B
:1039E0002046FEF781FC206CC1071CD115E084F84D
:1039F0003D6025644169C943490605D40069616A8F
:103A00000870606A401C60622068016821F0010152
:103A100001602046FEF7ECFAE5E7810703D4410791
:103A200001D4000704D52068416821F4E0614160B9
:103A300094F83D00216C49070BD5282809D1064888
:103A4000E062256384F83D6084F83E502046FEF72E
:103A500011FD70BD393800080000FFFF10B5C26AC3
:103A6000438D0168042B06D0438D032B08D0438D72
:103A7000022B1DD012E04A6822F480624A600CE0FA
:103A80004B6823F480634B60042A06D0022A04D0DA
:103A900001680A6822F480620A6001680969426A62
:103AA0001170416A491C4162418D491E418510BD1A
:103AB000012A30D0102A2ED0042A30D0022A2ED04B
:103AC0000A6842F400720A6001680969426A11706A
:103AD000416A491C4162428D521E42850268126948
:103AE0000A70416A491C4162418D491E4185016845
:103AF0004A6822F440724A60202180F83D1090F814
:103B00003E200021402A80F83E100CD01221016393
:103B1000FEF7B1FC10BD0A6822F48062D3E70A68A0
:103B200042F48062CFE70163FEF7A7FC10BD0000FE
:103B300038B590F83D1022290FD1418D03290DD9B8
:103B400001680969426A1170416A491C4162418DEC
:103B5000491E4185418D032906D038BDC26A022A1B
:103B600002D0012906D029B10068416821F48061A2
:103B7000416038BD274946F2A81300220968B1FB0D
:103B8000F3F101EB8101009101682023009C641E88
:103B9000009422D00C68A405F8D40C6824F4806446
:103BA0000C6001684C6824F4E0644C6001680969A9
:103BB000446A2170416A491C4162418D491E418518
:103BC00080F83D3090F83E1080F83E2040291DD00E
:103BD00012210163FEF74FFC38BD046C44F0200451
:103BE00004644C6824F4E0644C6001680969446A28
:103BF0002170416A491C4162418D491E418580F80E
:103C00003D3080F83E20FEF76FFB38BD0263FEF7C3
:103C100034FC38BD0C00002010B5C26A90F83D108D
:103C200021290BD1418D51B1416A02680978116196
:103C3000416A491C4162418D491E418510BD2023C6
:103C40000021082A13D0202A11D012F5803F0ED06F
:103C50000268546824F4E06454601122026380F81E
:103C60003E1080F83D3000BFFEF706FC10BD026834
:103C7000546824F4E06454600268146844F40074E6
:103C80001460016380F83D3090F83E2080F83E10CB
:103C9000402AE9D1FEF7F2FB10BD000010B590F804
:103CA0003D1090F83E30C26A048DB4B1212903D092
:103CB000402B11D122290FD1418DE1B390F83E1054
:103CC000402942D0416A026809781161416A491C61
:103CD0004162418D491E418510BD2129E8D1202333
:103CE0000021082A13D0202A11D012F5803F0ED0CF
:103CF0000268546824F4E06454601122026380F87E
:103D00003E1080F83D3000BFFEF7B6FB10BD0268E4
:103D1000546824F4E06454600268146844F4007445
:103D20001460016380F83D3090F83E2080F83E102A
:103D3000402AE9D100E002E0FEF7A0FB10BD0068D8
:103D4000416821F48061416010BDBDE8104000F081
:103D5000F3B8000078B590F83E50C26A046B90F852
:103D60003D6000230168222E73D1066D0EB9402DEF
:103D70006FD0056D1DB90569B5F5404F1BD0458D58
:103D800095B3468D484D012E20D0448D022C4DD048
:103D90000C6844F480640C6001684C68240579D593
:103DA000AA4273D0012A71D0082A6FD0102A6DD090
:103DB000202A6BD06EE04A698A6900920A6842F450
:103DC00080720A60016D491C016578BDAA4214D158
:103DD0000A6822F480620A6001684A68120504D504
:103DE0000A6822F4806217E0FFE74A698A69009254
:103DF0000A6842F400720A6050E0082A10D0202AB3
:103E00000ED0122C0AD0042A03D0022A01D0102A84
:103E1000E6D10A6842F480620A603BE0012ADFD002
:103E20000A6822F480620A600168DEE7042A11D081
:103E3000022A0FD0102A0DD00C6844F400640C60E4
:103E400001684C698C6900940C6824F480640C60EF
:103E500008E025E00C6844F480640C6001684C695B
:103E60008969009101684C68240517D5AA4207D0DA
:103E7000012A05D0082A03D0102A01D0202A0DD10A
:103E80004A6842F480524A6008E0FFE74A6842F418
:103E900080524A6001684A6989690091036578BD6A
:103EA00048698869009078BD0000FFFF90F83E10D7
:103EB000402910D00169B1F5804F19D0016DA9B327
:103EC000016D012910D1416C5FF0F10201F44071E4
:103ED00042EAD11106E0016D0029416C05D0C9B25A
:103EE00041F0010100680161704701F0FE01F9E74E
:103EF00090F83D102129416C09D0C9B241F001016F
:103F000002681161416B29B1896A49B902E001F087
:103F1000FE01F5E7816B0029E6D0896A0029E3D02C
:103F20000068416841F4006141607047FFE7416CFF
:103F3000F02201F44071CBE710B590F83D10026D0E
:103F40004AB1026D012A14D0026D022A16D0BDE8D2
:103F50001040FFF7CFBCC16C0129816C02D0C1F3C6
:103F6000072108E00268C9B21161016D891C016571
:103F700010BD816CC9B20268116123E022291CD0F6
:103F8000428D0AB1212920D0428D002AF0D1212969
:103F9000EED101684A6822F4E0624A6001680A686A
:103FA00042F400720A6000210163202280F83D2063
:103FB00080F83E10FEF762FA10BD01680A6842F40C
:103FC00080720A60016D491CD1E7416A0268097874
:103FD0001161416A491C4162418D491E418510BDF4
:103FE00038B50C4690F83D200021282595430268FD
:103FF0000B4605D051699169009180F83C3038BD7D
:10400000556825F480655560E243540700D50121C9
:10401000120601D5828900E0028B80F83C3092B212
:10402000FDF7E7FF38BD00002DE9F04190F83D3085
:104030000446C26A002120261E4F00686FF4806586
:10404000082A01D0202A01D1282B04D0212B17D0F7
:104050004561BDE8F081E762426822F4E0624260B7
:10406000206845612068026822F480620260216352
:1040700084F83D6084F83E102046FEF7FBF9E8E73F
:10408000E7622122226384F83D6084F83E10416893
:1040900021F4E0614160206845612068016821F4F5
:1040A000806101602046FFF725FC2046FEF753FAA9
:1040B000CFE700000000FFFFF8B590F83D60044630
:1040C0000068416821F4E061416020680025416991
:1040D0000091016841F0010101602068016821F44C
:1040E0008061016020684168090520D5474F222E74
:1040F00048D02A2E46D0616B096849686185618D78
:1041000019B1216C41F004012164416821F400617E
:104110004160606BFDF76CFE012808D0606B47635F
:10412000606BFDF719FE10B1606B416B8847608DC5
:1041300008B320684169C943490708D40069616A26
:104140000870606A401C6062608D401E6085206857
:104150004169C943490608D40069616A0870606A08
:10416000401C6062608D401E6085608D18B1206CBF
:1041700040F004002064206C00B32046BDE8F84005
:10418000FFF7C0BBA16B096849686185618D19B1F2
:10419000216C41F004012164416821F40061416017
:1041A000A06BFDF725FE0128C1D0A06B4763A06B73
:1041B000FDF7D2FD0028BAD0A06BB6E72A2E06D1B3
:1041C0002563282084F83D002046FEF7C3F994F8C3
:1041D0003D10202028290DD0216B222901D0222E2C
:1041E00007D1256384F83D0084F83E502046FEF751
:1041F000B1F9F8BD0649E162256384F83D0084F811
:104200003E502046FEF736F9F8BD00003938000868
:104210000000FFFF07490968C9070AD0054980392E
:104220000968C90705D04FF060410A68002AFCD030
:1042300008707047800E00E02DE9F04186B0002440
:1042400024480094019402940394816941F004018C
:104250008161816901F004010491816941F00801E3
:104260008161816901F008010491816941F01001C7
:104270008161816901F010010491816941F020019F
:1042800081618069144F00F0200048F2010504901C
:10429000002229463846FDF79FFEDFF840800022C5
:1042A00004214046FDF798FE00950226012503965D
:1042B000CDE9015469463846FDF79EFD0420CDE95D
:1042C0000005CDE9024669464046FDF795FD06B07A
:1042D000BDE8F081001002400008014000140140D8
:1042E0000C4810B50A490160002141608160C1603D
:1042F0000161416181610162416281620A21C162A1
:10430000FEF7A0FC002801D072B6FEE710BD000049
:10431000003001405402002010B596B000240F94E4
:1043200010941194129413941C2168461494FCF771
:1043300032F8202107A8FCF72EF830482E490160FA
:104340001521C0E901144FF6FF71C0E9031444615F
:104350008461FEF779FE08B172B6FEE74FF4805033
:104360000F900FA92548FEF7D5FE08B172B6FEE7FB
:104370002248FFF713F808B172B6FEE7139413A9A9
:104380001E481494FEF72CFE08B172B6FEE76020BA
:10439000CDE9000402940394049405940022694634
:1043A00016480694FEF794FF08B172B6FEE70422A1
:1043B00069461248FEF78CFF08B172B6FEE7082284
:1043C00069460E48FEF784FF08B172B6FEE707940F
:1043D000089409944FF400500A94CDE90B4007A9C2
:1043E00006480E94FEF7D1FD08B172B6FEE7034809
:1043F000FEF7FEFE16B010BD002C0140AC020020FE
:1044000010B58EB000240794089409940A940B9474
:104410001C2168460C94FBF7BEFF26484FF08041F4
:1044200001601521C0E901144FF6FF71C0E90314C2
:104430008461FEF709FE08B172B6FEE74FF48050C2
:10444000079007A91B48FEF765FE08B172B6FEE7A4
:104450001848FEF7A3FF08B172B6FEE70B940BA94C
:1044600014480C94FEF7BCFD08B172B6FEE760205C
:10447000CDE900040294042269460E480494FEF734
:1044800027FF08B172B6FEE7082269460948FEF721
:104490001FFF08B172B6FEE70C2269460548FEF719
:1044A00017FF08B172B6FEE70248FEF7A1FE0EB094
:1044B00010BD0000F402002010B58EB00024079457
:1044C000089409940A940B941C2168460C94FBF7F9
:1044D00062FF2A48284901601521C0E901144FF6FE
:1044E000FF71C0E903148461FEF7AEFD08B172B636
:1044F000FEE74FF48050079007A92048FEF70AFE18
:1045000008B172B6FEE71D48FEF748FF08B172B663
:10451000FEE70B940BA919480C94FEF761FD08B156
:1045200072B6FEE76020CDE90004029400226946DD
:1045300012480494FEF7CCFE08B172B6FEE70422DE
:1045400069460E48FEF7C4FE08B172B6FEE70822BF
:1045500069460A48FEF7BCFE08B172B6FEE70C22B7
:1045600069460648FEF7B4FE08B172B6FEE7034896
:10457000FEF73EFE0EB010BD000400403C030020DC
:1045800010B58EB000240794089409940A940B94F3
:104590001C2168460C94FBF7FEFE2248204901606E
:1045A0001521C0E901144FF6FF71C0E903148461BD
:1045B000FEF74AFD08B172B6FEE74FF4805007904F
:1045C00007A91848FEF7A6FD08B172B6FEE7154820
:1045D000FEF7E4FE08B172B6FEE70B940BA9114892
:1045E0000C94FEF7FDFC08B172B6FEE76020CDE941
:1045F00000040294082269460A480494FEF768FE03
:1046000008B172B6FEE70C2269460648FEF760FE66
:1046100008B172B6FEE70348FEF7EAFD0EB010BD22
:104620000008004084030020FEE7FEE730B1017877
:10463000AB2903D190F8C700CD2801D001207047E5
:104640000020704770B508291AD20123D0F8014024
:10465000D0F805508B401C4005EAE3752C430FD081
:1046600000EB8101D1F80910116050F8014FD943D6
:1046700042680C4002EAE17204604260002070BDB2
:10468000012070BD10B5032901D3012010BD00EB3E
:104690008103C3F8092050F8013F01228A40446891
:1046A000134344EAE27403604460002010BD30B15B
:1046B000AB210170CD2180F8C71000207047012088
:1046C0007047000010B500F0EFF80149086010BD18
:1046D0003C2C014010B500F0E7F80149086010BD1E
:1046E000382C014010B500F0DFF80149086010BD1A
:1046F000342C014010B500F0D7F80149086010BD16
:104700004004004010B500F0CFF80149086010BD2A
:104710003C04004010B500F0C7F80149086010BD26
:104720003804004010B500F0BFF80149086010BD22
:104730003404004010B500F0B7F84FF08041086431
:1047400010BD10B5082801D3012010BD70B101289B
:1047500010D0022812D0032814D0042816D005281F
:1047600018D006281AD007281CD01EE00846FFF7EC
:10477000A9FF1AE00846FFF7ADFF16E00846FFF76D
:10478000B1FF12E00846FFF7B5FF0EE00846FFF75D
:10479000B9FF0AE00846FFF7BDFF06E00846FFF74D
:1047A000C1FF02E00846FFF7C5FF002010BD7047BB
:1047B0000148FEF7D7B900005402002010B5406A46
:1047C0000021C187C186FEF7CBF910BD38B50B4675
:1047D000009204460022802100F008F8002804D04E
:1047E000606D40F020006065032038BD2DE9F8437E
:1047F0001E46914688460446089DFDF7F3FB401B84
:10480000351AFDF7EFFB074625480068C0F3CB30AB
:10481000684338E0701C37D0FDF7E4FBC01BA842AA
:1048200003D215B1009860B32CE02068416821F0F4
:10483000E00141606068B0F5827F0BD1A068B0F5FF
:10484000004F02D0B0F5806F04D12068016821F0DC
:1048500040010160A06AB0F5005F09D120680168DD
:1048600021F4005101602068016841F400510160A9
:10487000012084F85100002084F850000320BDE896
:10488000F8830025401E00902068816838EA010006
:1048900004D000214945BDD10020F0E70121F9E70E
:1048A0000C0000207047000070B50C4C0A4A2146ED
:1048B000FDF707FA21460A4C0A4D00F0B7FE2146E3
:1048C00000F0B6FD294600F09DFC214600F02CFCCE
:1048D000BDE87040FDF708BA0000C8420000C8C239
:1048E0000000A04000004843FDF736BE30B58FB051
:1048F00028216846FBF74FFD14210AA8FBF74BFD62
:1049000002250120049000951020059000244FF40A
:10491000E010CDE9084007956846FDF791FF08B122
:1049200072B6FEE70F20CDE90A054FF48060CDE9AD
:104930000C4001210AA80E94FDF7A6FE002801D024
:1049400072B6FEE70FB030BD70470000F0B50268E8
:10495000164B174C174D4FF08047984205D0B84280
:1049600003D0A04201D0A84203D122F070064A68C9
:104970003243984205D0B84203D0A04201D0A842A9
:1049800003D122F44074CA6822434C6922F08002A9
:10499000224302608A68C2620A688262984201D138
:1049A0000969016301214161F0BD0000002C014053
:1049B000000400400008004010B501F01F03012171
:1049C000046A99408C430462016A9A40114301626F
:1049D00010BD10B5846842EA032224F47F440A43E0
:1049E0002243826010BD826822F070020A4342F0C6
:1049F000070181607047000030B5036A026A22F047
:104A0000010202624268846924F073050C682C4339
:104A100023F002058B682B430A4DA8420BD123F0EB
:104A20000805CB6822F440722B434D6923F0040340
:104A300015438A692A43426084614968416303627D
:104A400030BD0000002C014030B5026A036A23F03B
:104A500010030362436884690D6824F4E64444EA61
:104A600005248D6822F0200242EA05120B4DA8426F
:104A70000ED1CD6822F0800242EA05124D6923F47E
:104A8000406343EA85038D6922F0400243EA8503CF
:104A90004360846149688163026230BD002C01403B
:104AA00030B5036A026A22F4807202624268C46905
:104AB00023F4007324F073050C682C438D6843EADB
:104AC00005230C4DA8420ED1CD6823F4006343EAC0
:104AD00005234D6922F4405242EA05128D6923F400
:104AE000806342EA05124260C4614968C16303629F
:104AF00030BD0000002C014030B5046A026A22F487
:104B0000805202624268C3690D6823F4E64343EAB7
:104B100005238D6824F4005444EA0534064DA84268
:104B200004D14D6922F4804242EA85124260C36199
:104B300049680164046230BD002C014010B5036A6D
:104B4000046A24F001040462846924F0F00444EA55
:104B5000021423F00A020A438461026210BD10B5F8
:104B6000036A046A24F010040462846923F0A00339
:104B700024F4704444EA023243EA01118261016282
:104B800010BD10B5406A0021C185C184FEF783FCC9
:104B900010BD01680C3151E8002F22F4907241E8F9
:104BA0000023002BF5D10168143151E8002F22F0C9
:104BB000010241E80023002BF5D1016B012909D145
:104BC00001680C3151E8002F22F0100241E8002367
:104BD000002BF5D1202180F842100021016370479D
:104BE00008B590F84210222901D0022008BD826841
:104BF0004FF480539A4201D1016921B1816A9A42EE
:104C00001BD04AB10AE00268816A5268C2F3080206
:104C10000A80816A891C08E0026972B102685268E0
:104C200002F07F020A70816A491C8162C18D491EAF
:104C30000904090CC18503D01BE002685268F1E742
:104C40000168CA6822F02002CA600168CA6822F4BA
:104C50008072CA6001684A6922F001024A6120211B
:104C600080F8421000214163026B012A03D0FEF755
:104C7000C7FD002008BD016301680C3151E8002F19
:104C800022F0100241E80023002BF5D101680A68E8
:104C9000D20602D50A6849680091818DFEF7FAFBB9
:104CA000E7E7000070B5044600680169E26821F496
:104CB0004051114301612169A068084361690843BB
:104CC0002168CA6841F20C639A430243CA602068B3
:104CD0004169A26921F44071114341611E49206874
:104CE000884202D1FDF776FD01E0FDF763FD00EBA0
:104CF000C00101EB0012606864218000B2FBF0F398
:104D0000B3FBF1F36FF018067343B2FBF0F5B2FB9F
:104D1000F0F605EB8305322303EB0515B5FBF1F542
:104D2000B6FBF1F605F0F00505EB0615B2FBF0F663
:104D3000B2FBF0F0B0FBF1F06FF01802504306EB5D
:104D4000800003EB0010B0FBF1F0216800F00F00D1
:104D50002844886070BD0000003801400148FEF71B
:104D60009BBB0000CC030020FEE7490050EAC120B5
:104D700018BF04204A0D18BF40F0010040F2FF7236
:104D8000B2EB515F08BF40F00200012808BF0520C8
:104D900070470907090E002804DB00F1E02080F8C5
:104DA0000014704700F00F0000F1E02080F8141D9F
:104DB000704730380A2801D2012070470020704720
:104DC0006FF40041401804D0012803D0022801D01C
:104DD00008147047002070476FF40041401800D05D
:104DE000002070476FF40041401805D0012802D020
:104DF000022801D0002070470120704770B50400E0
:104E00004FF0FF3511D020783A280ED10CA1204662
:104E1000FBF7E8FA58B10CA12046FBF7E3FA48B1DA
:104E20000BA12046FBF7DEFA38B1284670BD48F2E8
:104E3000010070BD48F2020070BD48F2030070BD71
:104E40003A535444494E00003A5354444F55540089
:104E50003A535444455252004FF0FF30704710B55A
:104E60000C466FF40041411813464FF0FF3013D049
:104E7000012902D002290FD106E063B114F8010B19
:104E8000FFF7C8F95B1EF8E72BB114F8010BFFF729
:104E9000C1F95B1EF8E7002010BD8A68002A01DC1A
:104EA000FBF762BF521E8A604A68C0B2531C4B6057
:104EB0001070704708B56348FFF7F9FBFDF754FB26
:104EC000FFF714FDFFF7B8F9FFF70AFA5D485E49EE
:104ED000C8305E4E00240160C0E901640D14C0E9D1
:104EE000034544618461C4610462FDF7FFF908B1C0
:104EF00072B6FEE7574856490160C0E90164C0E94F
:104F0000034544618461C4610462FDF7EFF908B1AF
:104F100072B6FEE7FFF700FAFFF772FAFFF7CCFA76
:104F2000FFF72EFB4D484C4901604FF41651C0E984
:104F300001140C21C460C0E904418461C461FEF71E
:104F4000E1FB08B172B6FEE742480021AC30FEF743
:104F500053FA40480421AC30FEF74EFA3D48082190
:104F6000AC30FEF749FA3D480421D838FEF744FA40
:104F70003A480821D838FEF73FFA38480C21D8388B
:104F8000FEF73AFA354800219038FEF735FA3348F3
:104F900004219038FEF730FA304808219038FEF7A7
:104FA0002BFA2E480C219038FEF726FA2B480821C0
:104FB0004838FEF721FA29480C214838FEF71CFA38
:104FC000204D274FDFF89C804FF0FF363A460021F6
:104FD0001C48FFF757FB424601211A48FFF752FBD6
:104FE00021A0FBF709F9174A1649C823C83A01F569
:104FF000B8700096FDF7BEFE00211248C5F80110FA
:10500000C5F80510C838FFF711FB0028DED10024D1
:105010000C486A462146C838FFF714FB60B900986F
:1050200000F056F802460B46214616A0FBF7E4F8BE
:1050300020460099FFF785FB641CE4B2082CE7D3F7
:10504000C4E70000E400002000540040A0860100F6
:10505000005800400002002000480040CC0300201F
:1050600000005841666654422B2B2B2B2B2B2B2BED
:105070002B2B2B2B2B2B2B2B2B2B2B2B2B2B2B0D9E
:105080000A000000534552564F5B25645D3A2025C7
:105090002E32660D0A00000010B500290AD00878EB
:1050A000002807D005487844FBF79CF9002801D078
:1050B000002010BD0248784410BD00006A070000BF
:1050C000620700000808A0F500114FEA310170479F
:1050D00043004FEAD30C4FEA3C0C43401FBF40074C
:1050E0000CF1605113F0FE4F70471CF0006F03D1BC
:1050F00000200CF0004170470CF0004343EA507070
:1051000010B540EACC0000F014FA00BF0000009295
:105110004FEA0001FFF7D6BF4FF000414FF000000B
:10512000A1F500217047000090EA010F48BF81F00F
:10513000004100F18282421A3CBF801A89184FEA6E
:10514000D0524FF07F4C1CEA410FA2EBD15318BF55
:105150009CEA026F00F03B804FF0004C4CEA0020CC
:105160004CEA012121FA03FC10EB0C0C1ED202F1D7
:10517000FF325FEA1C2040EBC25038BF70471CF082
:105180007F0F4FEA400C18BFBCF17F4F38BF70470C
:10519000C3F12003994008BF20F00100BCF17F4F0C
:1051A00038BF7047A0F1C04000F009BA4FEA3C0098
:1051B000000A40EBC25028BF1CF0FF0F4FEA400C22
:1051C000E6D018BFBCF17F4F38BF7047EAE79CEAD2
:1051D000026F05D010EA5C0F08BF00F00040704776
:1051E00010B500F0A6F900BF64FBBE3E401058BFEA
:1051F000C0F14040491058BFC1F140418142EFF336
:10520000008070474FF47F0C1CEAD0121EBF1CEACE
:10521000D11392EA0C0F93EA0C0F00F0858090EA0C
:10522000010F48BF42F4807240F4000C41F40000CA
:105230002CF07F4120F07F4000B58142A2EB0302B9
:105240000FF2081CACEB504EC0F100009EF800E0DD
:105250004FEA4E0E00FB0EFC38BF49004FEA2C1CF3
:1052600002F5FA020CFB0EF34FEACE1E4FEA112CA8
:105270004FEAC1210EEB635E42EB22420EFB0CFCB7
:105280004FEA1C5300FB03114FEA112C4FEA013186
:105290000EFB0CFC4FEADC4C00FB0C11C14228BF9A
:1052A00009184CEB03335DF804EB10EB410143EBC1
:1052B000C250B2F57C0F38BF704729D512F0F00FFD
:1052C0001CBF00F1C04000F00040704700818283A5
:1052D0008485868788898B8C8D8E8F919293959605
:1052E00097999A9C9D9FA0A2A3A5A7A8AAACAEB08F
:1052F000B2B3B5B7B9BCBEC0C2C5C7C9CCCED1D494
:10530000D7D9DCDFE2E6E9ECF0F3F7FAFE000000C3
:105310004FEA400C0CF1807CBCF17E4F28BF7047F7
:10532000B0F1C04000F04BB990EA010F0CEAD11384
:1053300048BF42F48072624538BF634507D213F418
:105340007F0F16D080EA010000F00040704710B5D2
:1053500000F0EFF8097EFC3E00F005B880EA01009D
:1053600000F00040704780EA010000F0004000F0CB
:1053700026B912F47F0F04BF0248704780EA01008B
:1053800000F01DB90000C07FC10DD1F19E0206DB07
:105390004FEA002343F0004323FA02F07047004233
:1053A00007D54FEA4001B1F1FE4F02D24FF00000A5
:1053B000704710B500F0BDF8499224800020704776
:1053C0006FEA20007047000050EA010C00F11380E2
:1053D0001CF5000F58BFBCF5000F01D48842704780
:1053E00007D710F5000F58BF11F5000F15D48842EC
:1053F0007047894270471CF5000F04D5BCF5000FBB
:10540000F7D5814270474FF0807C1CEB400F38BFCE
:105410001CEB410F01D28142704710B500F089F8B2
:10542000922449004FF000504FF08051FFF7DEBE4C
:105430004FF47F0C1CEAD0121EBF1CEAD11392EA73
:105440000C0F93EA0C0F00F0478090EA010F48BF61
:1054500042F480724FF0004C4CEA00204CEA0121EB
:1054600002EB0302A0FB0113A2F50002002918BF02
:1054700043F001035B0028BF4FEA330342EB2242B3
:105480005FEA132C4CEBC2502EBFBCEB436FB2F55E
:105490007C0F70474FEA036CBCF1004F08BF20F04F
:1054A0000100B2F57C0F38BF70470BD582F0FF02C8
:1054B00012F5803FC8BF704700F1C040D8BF00F070
:1054C0000040704700F5000C5FEA4C0C48BF704785
:1054D000B0F1C04000F073B890EA010F0CEAD113AC
:1054E00048BF42F48072624538BF634504D280EA07
:1054F000010000F00040704710B500F01AF800BF3E
:105500008900013E00F007B800F009B85FEA410CDD
:105510005FEA1C6C08D080EA010000F050B85FEA36
:10552000400C5FEA1C6CF6D14FF00040A0F5800003
:1055300070470EF1020E2EF0030E5EF8044B24426B
:1055400004D44FEA4102B2F17F4F11D84FEA400331
:10555000B3F17F4F0CD80ED14FEAD07CB2F17F4F20
:105560000CEB4C0C0CF1020C08BF4CEBD17C04E0B2
:105570004FF0080C01E04FEAD17C0CEB4C0324FA0D
:1055800003F404F00704B4F1040C06D20EEB840C0F
:10559000BDE810404CF0010C6047DFE80CF0070854
:1055A00002024FF00040A0F5800010BD0846420006
:1055B00018BFD2F1807288BF00F0004010BDFF21FB
:1055C00041EAD050C005704751EA000C00F1138049
:1055D0001CF5000F58BFBCF5000F01D48142704785
:1055E00007D711F5000F58BF10F5000F15D48142F1
:1055F0007047894270471CF5000F04D5BCF5000FB9
:10560000F7D5884270474FF0807C1CEB410F38BFC4
:105610001CEB400F01D28842704780EA010081EA0A
:10562000000180EA0100FFF7F8BE000090EA010FD8
:1056300048BF81F000413FF57EAD421A04D882F0A8
:105640000042A0EB020011444FEAD0524FF07F4CD1
:105650001CEA410FA2EBD15318BF9CEA026F4AD05B
:105660004FF0004C4CEA00204CEA012121FA03FCE7
:10567000B0EB0C0C0FD412F0FE0F36D05FEA4C00EA
:105680001DD5001240EBC25038BF70471CF03F0FD1
:1056900018BF70470BE0A2F101025FEA1C2040EB4B
:1056A000C25038BF70471CF07F0F18BF7047C3F15E
:1056B0002003994014BF401E20F00100704780086D
:1056C0004FEA122308BF7047B0FA80FCA2EB0C022D
:1056D000CCF1280C60FA0CF093EA122F04BF00EB17
:1056E000C25070474FEAC3707047130A5FEADC107C
:1056F00008BF7047F6E79CEA026F04D010EA5C0F1F
:1057000008BF0020704710B5FFF713FF40DFF63EDB
:1057100081F000407047FAF7DABF01020203040586
:10572000060708090A0B0C0D0E0F101000000000F0
:105730000000000001020304060708090000000041
:10574000010203043A535444494E003A5354444F1F
:105750005554003A53544445525200000240000050
:10576000000000A00000000005400000000000C88C
:10577000000000000C4000000000409C0000000001
:10578000194000000020BCBE0000000034400000B2
:10579000BFC91B8E00000004B5400000504BCFD0A5
:1057A0006607E2CF010000006C4100003E8251AA72
:1057B000DFEEA73401000000D9420000DCB5A0E212
:1057C0003A301F97FFFFFFFFB4450000FD25A0C83A
:1057D000E9A3C14FFFFFFFFFFF3F00000000008073
:1057E00000000000FF3F00000000008000000000FB
:1057F0002C580008000000201C00000028010008B0
:10580000485800081C000020540B00004401000808
:105810001C00000043000000F8FFFFFF0C00000028
:105820000E0000000F0000002E000000010000002C
:1058300010000000000000000024F4000000000040
:08584000000000000000000060
:04000005080000ED02
:00000001FF
