:020000040800F2
:10000000E00A0020990100087B3300085925000808
:1000100079330008ED0C00080138000800000000EA
:100020000000000000000000000000009D330008F8
:10003000EF0C0008000000007D3300089F3300082B
:10004000B3010008B3010008B3010008B3010008C0
:10005000B3010008B3010008B3010008B3010008B0
:10006000B3010008B3010008B3010008B3010008A0
:10007000B3010008B3010008B3010008B301000890
:10008000B3010008B3010008B3010008B301000880
:10009000B3010008B3010008B3010008B301000870
:1000A000B3010008B3010008B3010008B301000860
:1000B000B3010008B3010008B30100086925000876
:1000C0005D2500088125000875250008813300089A
:1000D000B3010008B3010008B3010008F5370008B8
:1000E000B3010008B3010008B301000800F002F8F2
:1000F00000F042F80AA090E8000C82448344AAF180
:100100000107DA4501D100F037F8AFF2090EBAE87D
:100110000F0013F0010F18BFFB1A43F0010318473B
:100120000839000028390000103A24BF78C878C187
:10013000FAD8520724BF30C830C144BF04680C60ED
:10014000704700000023002400250026103A28BF35
:1001500078C1FBD8520728BF30C148BF0B60704739
:100160001FB59DE8030000F0B3FB00F0DBF81FBDF6
:1001700010B500F040F910BD00F070F91146FFF71E
:10018000EFFF03F0C9FB00F073FB03B4FFF7F0FFD0
:1001900003BC00F00FFD00000948804709480047F4
:1001A000FEE7FEE7FEE7FEE7FEE7FEE7FEE7FEE727
:1001B000FEE7FEE704480549054A064B7047000084
:1001C000FF330008ED000008E0040020E00A0020F2
:1001D000E0060020E00600200FB4044910B503AA91
:1001E000029800F071F810BC5DF814FBD8030020F1
:1001F0004FF0000200B5134694469646203922BFC0
:10020000A0E80C50A0E80C50B1F12001BFF4F7AF0A
:10021000090728BFA0E80C5048BF0CC05DF804EBEC
:10022000890028BF40F8042B08BF704748BF20F85A
:10023000022B11F0804F18BF00F8012B704700000F
:100240004FF0013C50F8042B51F8043B9A4221D165
:10025000A2EB0C03934313EACC1317D150F8042BF1
:1002600051F8043B9A4215D1A2EB0C03934313EAD5
:10027000CC130BD150F8042B51F8043B9A4209D10E
:10028000A2EB0C03934313EACC13DBD04FF0000036
:10029000704700BFD01A01BAB1FA81F101F018011C
:1002A00022FA01F0CB40C1F12001DBB2C0B2C01A8A
:1002B0002CFA01F3D11A914311EAC311E6D1704728
:1002C0007047704770470000074B70B50D467B4480
:1002D00000F011F80446284600F020F810B14FF065
:1002E000FF3070BD204670BD2D36000001694A1CEC
:1002F00002610878704700B58FB0CDE90131002167
:10030000059105497944CDE903101146684600F08E
:10031000F1F80FB000BD0000E5FFFFFF007B00F02B
:100320008000704710B542485421FFF761FF4148F3
:100330005421FFF75DFF40485421FFF759FF3F4923
:100340003B483C4A3F4B08603D490A603A491960C6
:10035000531C0365481C1065012008653B48344A5E
:1003600039A1784400F0E8F920B9384878440A38CF
:1003700000F087FA37482F4A35A1784400F0DCF9BD
:1003800020B9344878440A3800F07BFA32482A4AC7
:100390002FA1784400F0D0F920B92F4878440A38CA
:1003A00000F06FFA40232248DC000021224600F0D2
:1003B000A0F920B125487844543800F062FA1D486D
:1003C00022464023002100F094F920B121487844CE
:1003D000543800F056FA184822461023002100F045
:1003E00088F9002806D01C487844BDE810405638EB
:1003F00000F047BA10BD104870B5006D20F0010440
:100400000B4800F00FFA0B4800F00CFA0A4800F015
:1004100009FA09E0206D20F00105204600F002FAFB
:10042000204600F040F82C46002CF3D170BD0000AF
:1004300084030020D80300202C040020100000209A
:10044000140000201800002072000000A8360000F0
:10045000770000009736000087360000754600F0F0
:1004600017FAAE4605006946534620F00700854658
:1004700018B020B5FFF79EFEBDE820404FF0000603
:100480004FF000074FF000084FF0000B21F007017C
:10049000AC46ACE8C009ACE8C009ACE8C009ACE8BF
:1004A000C0098D46704770B50446051F00F0F4F989
:1004B0000068002C14BF446870BD002C18BFAC420B
:1004C0003CBF20466468F8D301680A18AA4218BFE6
:1004D000456003D12A680546114401602868411926
:1004E000A1421CBF6C6070BD6168696021680844EE
:1004F000286070BD2DE9F04106460024D6E9017060
:10050000F5688046304603E04146B847641C3046F3
:10051000A8470028F8D12046BDE8F0812DE9F04732
:1005200005460C46C86820F4201040F48000C860DE
:10053000800602D5084600F0FCFAE06841F282012C
:100540004FF0FF390140022903D0204600F09AFA0B
:10055000B5E000F42041B1F5004F0FD1C00306D53E
:100560006168E06A884200D80846606006E0206959
:10057000E0626060606903F060F9A061A068002239
:10058000EEB200280DDAE1688B050AD4C043A06002
:1005900041F490302260E0606068411C6160067048
:1005A000A5E0E0689046226040F40050E0602069D9
:1005B00068BB606903F047F9012704F12405A0B185
:1005C000A08910F4407F08D0E06900F0B0F9206104
:1005D00018B1E06840F4006016E0E7612561E0686A
:1005E00020F4407040F480600EE0E06900F09FF974
:1005F00000282061F1D0E06840F4006010F4407FF2
:10060000E06002D140F48070E06020696060E068E2
:1006100025696FF0010AC1051FD56168E06A88424B
:1006200000D80846411B04D02246284600F034FA80
:10063000F0BBE068010203D5E562C4E9015854E06B
:10064000691CE1626160E16940F48030491EC4E9DF
:10065000021030462E70BDE8F087010202D500F48A
:1006600080320AE06068411C61600670E0680A2E12
:1006700040F48030E06006D00022E16A6068814288
:1006800003D90B4602E00122F7E70346A7895B1B6B
:100690007F0503D4E7699F4200DDE2B1814200D8C3
:1006A0000146E5620F1AC4E90158002B09DD00E09C
:1006B00005E022461946284600F0EEF908B1484602
:1006C000C9E747B1A069E5626560C01BA061E06849
:1006D00040F01000E060E068000208D56168A069A1
:1006E000E562491B08446560A0615046B3E73046A7
:1006F000B1E770B5C468A50713D0650211D4B2F58F
:10070000807F09D0B2F5007F06D0B2F5806F08D1A6
:10071000012300F1240106E05D1E6FF07F46B54223
:1007200001D3012070BD0161C361416024F4706197
:100730001143C160002070BD2DE9F0410C46074611
:100740001646104600F06EF82078611C61280AD029
:10075000722802D077283CD102E00125002405E070
:100760000225042402E0082448F2020511F8010BD6
:100770002B2806D0622809D011F8010C74280AD061
:100780000BE045F0030544F00204EFE745F00405F3
:1007900044F00104EAE744F010043846214603F02F
:1007A0005FF8411C15D00021316171604FF4007178
:1007B000F560F1617061200704D530460222002106
:1007C00000F0E4F8306D40F0010030653046BDE8DF
:1007D000F0810020FBE72DE9F0410D460646104C64
:1007E000206DC10704D0410804D020F00104F7E7D0
:1007F00022460EE0542000F09AF807000ED0206D3B
:1008000047F001010843542120653846FFF7F0FC0A
:100810003A4629463046BDE8F0418DE70020D6E74C
:10082000840300202DE9F04704464FF000094FF003
:10083000FF37C568D4E90486A80707D0204600F032
:1008400055F9304602F0EDFF002802DA3846BDE8DF
:10085000F087280502D54046FFF725FE4C212046AB
:10086000FFF7C6FC206D20F0010020654846EEE74A
:1008700010B50446AFF300802046BDE81040FFF7F6
:1008800084BC10B500F07CF9BDE8104000F072B9EE
:10089000004870478004002000487047880400200A
:1008A000704770477047704738B504460A460020C5
:1008B0006946AFF30080002808BF38BD02460099A2
:1008C000204600F084F9012038BD012000F0D3B9A2
:1008D000F8B5AFF30080054600200C46102000BF9D
:1008E0000646A819A0420DD9324669460020AFF34A
:1008F0000080070008BF00F0BEF90098A04218BFB2
:100900000546C419FFF7C8FF05600746F01D20F033
:1009100007004619284600F053F9B44208BFF8BD55
:10092000A21B31463868BDE8F84000F050B970B5F8
:100930000646FFF7B1FF056806F10B0020F007043B
:10094000B4429CBF002070BD2B466A68BAB11068E3
:10095000A04210D304F1080188423CBF506858609F
:1009600007D35168101941601168091B0160586074
:100970001460101D70BD13465268002AE7D121464D
:100980002846FFF791FF0028DED170BD2DE9F04128
:10099000044616460D464769007B80072ED0384630
:1009A00002F051FF50BB3EB3012E02D0022E25D1E2
:1009B00004E0204600F025F905441DE0384602F029
:1009C0003CFFE168002841F01001E16005DA2046B3
:1009D00000F058F80120BDE8F081C9030BD562682A
:1009E000E16A914200D81146A26911442269891A2C
:1009F000814200DD08460544002D01DA0220EAE7C5
:100A0000E16A6068E268814206D29103E06203D540
:100A100022F4003141F01002A6690027AE4213DC37
:100A2000E16A814201D90B4600E0034603EB060C64
:100A30002369ACEB030CAC4506DD814201D98C4641
:100A400000E084469C4505D1A760276042F0200065
:100A5000A5620DE0AD1BE669AE1B8142A66000D920
:100A60000846C01A281A20605819606022F0200039
:100A700003490840E060002084F84870ABE70000BC
:100A8000BFCFD7FFC16821F4001141F08001C160E0
:100A900000218160016070472DE9F04781461446CE
:100AA0000E464FF0FF383248D5685769054209D0E5
:100AB0003846A16902F002FF002811DB2C48C04330
:100AC0000540E5602B4632464946384602F0F9FEBD
:100AD000A16920F00042B21A11440028A16103D09C
:100AE0002046FFF7CFFF4046BDE8F08770B50446CB
:100AF0000569C06A6168884200D80846E16821F447
:100B00002011E160C90312D5A84208D02246411B3A
:100B10002846FFF7C1FF10B14FF0FF3070BD002035
:100B2000E562C4E90150E06820F48030E060002014
:100B300070BD10B50446C06820F02000E060A16AD6
:100B4000A06988420DD02046FFF7D0FFE06820F46E
:100B5000405040F01000E060A06AA0612069E062AF
:100B6000606044F24001E0688843E06010BD00002E
:100B700010000200002801D000F01CB870470000EF
:100B800010B5014602A000F05DF8012010BD000084
:100B900053494752545245443A205265646972653C
:100BA00063743A2063616E2774206F70656E3A201B
:100BB0000000000001491820ABBEFEE7260002003D
:100BC00000210160C0E90110704710207047034602
:100BD00040688C46002818BF88423CBF03464068E6
:100BE000F8D318681844884207D00CF1030020F0AD
:100BF0000700001D411A521A0146081D0A60FFF73E
:100C000052BC10B50146C268900703D0900607D5C4
:100C1000886A0AE000F03EF801210160881E10BDDC
:100C20008B69486818440B69C01A91F848301BB1A9
:100C300091F84910401A10BD1103FCD50028FADDC7
:100C4000401E10BD70B505460C460A2000E06D1C24
:100C500000F018F835B128780028F8D102E0641CBB
:100C600000F010F814B120780028F8D1BDE87040E9
:100C70000A2000F007B810B500F010F8BDE81040E9
:100C8000FFF778BF08B569468DF800000320ABBEBA
:100C900008BD7047004870478004002010B5012847
:100CA00005D0002103A0FFF7CDFF012010BD09A151
:100CB000F8E7000053494752544D454D3A204F75CF
:100CC00074206F662068656170206D656D6F727944
:100CD000000000003A2048656170206D656D6F72FC
:100CE0007920636F7272757074656400FEE77047F7
:100CF00010B590F821100022022905D0042181634B
:100D000080F82020012010BD01680B6823F00E033D
:100D10000B6001680B6823F001030B6090F8403012
:100D2000C46B012101FA03F3636080F8211080F89D
:100D30002020104610BD000010B590F821100024AE
:100D4000022903D00421816301243DE001680A687F
:100D500022F00E020A6001680A6822F001020A60AD
:100D60001A4A0168914201D1012121E0174A143247
:100D7000914201D110211BE0144A2832914201D145
:100D8000891515E0114A3C32914201D189140FE0D6
:100D90000E4A5032914202D14FF4803108E00B4AA2
:100DA0006432914202D14FF4801101E04FF0807122
:100DB000064A083A5160012180F82110002180F88C
:100DC0002010416B01B18847204610BD0800024049
:100DD00090F82100704700002DE9F84FDFF8B89136
:100DE0000024A9F1040B23460F2709F1040AABF1F3
:100DF000040EC9E00125A5402A40AA427DD1674ED4
:100E0000D1F804C0ACEB0608B44532D014DCBCF118
:100E1000030F3AD009DCBCF1000F2AD0BCF1010F5E
:100E20001CD0BCF1020F31D11DE0BCF1110F17D065
:100E3000BCF1120F2AD119E0B8F5881F19D006DCD1
:100E4000B8F5803F15D0B8F5801F1FD111E0B8F577
:100E5000001F0ED0B8F5041F18D10AE0CB6815E0CA
:100E6000CB681B1D12E0CB6808330FE0CB680C3356
:100E70000CE08B682BB1012B4FF0080303D04561C8
:100E800004E0042302E0056100E00023FF2A01D80A
:100E9000064601E000F104064FEA840501D9A5F1F8
:100EA0002005D6F8008007FA05FC28EA0C0803FAAA
:100EB00005F548EA0508C6F800804D68ED0062D5E2
:100EC000374DAE6946F00106AE61AD6924F0030608
:100ED00005F001050095334D06EB050CDCF80850D4
:100EE000A607360F07FA06F825EA0805DFF8B880E6
:100EF000404503D14FF0000817E044E0DFF8AC8034
:100F0000404502D14FF001080FE0DFF8A4804045D2
:100F100002D14FF0020808E0DFF89880404502D186
:100F20004FF0030801E04FF0040808FA06F848EA19
:100F30000508CCF808804D68D9F80060ED024D46F0
:100F400001D5164300E096432E604D68DAF8006044
:100F5000AD02554601D5164300E096432E604D681C
:100F6000DBF80060AD035D4601D5164300E0964313
:100F70002E604D68DEF80060ED03754601D516431E
:100F800000E096432E60641C0D682A46E5407FF41D
:100F900031AFBDE8F88F00000804014000001110D7
:100FA000001002400000014000080140000C014018
:100FB00000100140001401400AB1016170470904AA
:100FC000FBE7000001488068704700000000002037
:100FD000704770472DE9F041016804464A694E6840
:100FE00090F83E000025D743FA050BD4F243D20512
:100FF00008D46FF4807201254A6121680A6842F4BE
:1010000000420A60B90508D4F143C90505D4226835
:101010006FF4007145F002055161790525D4F14363
:10102000C90522D4638D94F83D10226B202808D185
:101030003BB9212910D029290ED0282901D1212AF4
:101040000AD022686FF48061516145F004051028D0
:1010500006D0402804D008E0204601F08FFE04E0CE
:101060002068016841F400710160380508D4F0433C
:10107000C00505D421686FF4006045F0080548619B
:10108000002D07D0206C284320642046BDE8F041A5
:1010900001F0E2BABDE8F0812DE9F04702680021D5
:1010A0005368C66A90F83E4090F83D50102C12D01C
:1010B000402C10D0046C002C7DD05469E443A6076A
:1010C0007AD4DE43B60577D4036C03B19169BDE8E9
:1010D000F04701F02FBE976951694FF42A0CC943BC
:1010E0005FEAC1784FF02A4904D066452AD04E45C0
:1010F00028D010E0DE43B6050DD4C16A614501D1A8
:10110000012103E0C16A494501D10821C162BDE85E
:10111000F04701F075BD0E0716D4DE43B60513D4B3
:10112000416CC9B21161416B09B1896A29B9816BFE
:10113000002907D0896A002904D00068416841F479
:1011400000614160BDE8F0878E0706D4DE43B60536
:1011500003D4BDE8F04701F0A7BCFE435268760710
:101160004FEA02521DD4002AECDB0A0608D4DA4307
:10117000520505D4490705D5BDE8F04701F038BC54
:101180004907DFD4D9438905DCD4212D05D0402C73
:10119000D8D1BDE8F04701F079BDBDE8F04701F0D6
:1011A000E5BB002ACEDB4A060BD4DA43520508D44D
:1011B000490708D501E00DE00EE0BDE8F04701F079
:1011C00061BB4907BED4D9438905BBD4BDE8F0470C
:1011D00001F0EEBA916970E7E10606D4D9438905BA
:1011E00003D4BDE8F04701F011BE2821212D27D0FE
:1011F000292D25D0650655D4DD436D0552D46407ED
:1012000052D590F83D30448D002C9BD01269446A31
:101210002270426A521C4262428D521E4285428DA9
:10122000002A8FD12A2B8DD10268536823F4806362
:1012300053602222026380F83D1000F07BF981E7C1
:10124000250623D4DD436D0520D4640720D590F80E
:101250003D30448D002CF2D0446A24781461426AF7
:10126000521C4262428D521E4285428D002AE6D1B6
:10127000292BE4D10268536823F480635360212250
:10128000026380F83D1000F056F95BE76107D6D4A1
:10129000D9438905D3D4418D0029D0D0416A09783A
:1012A00011610AE06107CAD4D9438905C7D4418DC9
:1012B0000029C4D01169426A1170416A491C416217
:1012C000418D491E41853DE77047000070B504001F
:1012D00025D094F83D00002520B984F83C502046E4
:1012E00000F0BEF8242084F83D002068016821F059
:1012F000010101602068016841F40041016020683B
:10130000016821F40041016000F044FA4D4A61682F
:10131000914201D84C4900E04C49884201D2012059
:1013200070BD4B492368B0FBF1F15E6826F03F06C3
:101330000E435E606368934206D94FF49673594337
:101340004FF47A73B1FBF3F12368491C1E6A26F04F
:101350003F06314319626168914210D84900401E2E
:10136000B0FBF1F2521CC2F30B02042A01D204209A
:1013700022E0B0FBF1F0401CC0F30B001CE0A268BF
:10138000F2B301EBC10303EB0116431EB3FBF6F30B
:101390005B1C43F480431B0549D092B301EBC102AF
:1013A00002EB0111401EB0FBF1F0401CC0F30B003A
:1013B00040F4804040F400402168CA694CF6FF7355
:1013C0009A431043C861D4E90710014320680268BA
:1013D00022F0C00211430160D4E9030101432068F7
:1013E000826848F2FF339A4311438160D4E90501D2
:1013F00008432168CA6822F0FF021043C86001E078
:101400000EE016E02068016841F0010101602564EA
:10141000202084F83D00256384F83E50002070BDF4
:1014200001EB4106431EB3FBF6F35B1CB3E701205F
:10143000C2E701EB4101401EB0FBF1F0401CC0F3DC
:101440000B00B7E7A086010080841E0000093D0064
:1014500040420F0070477047704770477047000068
:1014600030B585B0002100910191029103912D4D7D
:1014700003682D4C122103222C48AB4225D1A369CD
:1014800043F00803A361A369039203F008030493E4
:10149000C023CDE900316946FFF79EFCE06940F4C6
:1014A0000010E061E069002200F400100490114691
:1014B0001F2000F0A7F81F2000F096F80022114628
:1014C000202000F09FF8202028E0194DAB4227D1C2
:1014D000A36943F00803A361A369039203F008031F
:1014E00004934FF44063CDE900316946FFF774FC83
:1014F000E06940F48000E061E069002200F48000CF
:1015000004901146212000F07DF8212000F06CF8B5
:1015100000221146222000F075F8222000F064F825
:1015200005B030BD0054004000100240000C0140E6
:1015300000580040704770470248816802781144A3
:101540008160704700000020074810B5016841F035
:1015500010010160032000F075F80F2000F006F87C
:1015600000F024F8002010BD0020024070B50D4DA1
:1015700004464FF47A712878B1FBF0F00A49096803
:10158000B1FBF0F000F0E6FB48B9102C07D20022C6
:101590002146501E00F036F800206C6070BD01201E
:1015A00070BD0000000000200C0000200C4808B5B1
:1015B000816941F001018161816901F001010091BE
:1015C000C16941F08051C161C06900F08050009054
:1015D0000448416821F0E06141F00071416008BDBC
:1015E0000010024000000140002809DB00F01F024B
:1015F000012191404009800000F1E020C0F8001175
:1016000070470000F0B40E4B1B680C46C3F3022376
:10161000C3F10705042D00D90425191D072901D29E
:10162000002300E0DB1E012606FA05F1491E2140D9
:1016300099409E40761E16403143F0BC02F0E1B85E
:101640000CED00E0064900F0070208684FF6FF03C2
:10165000184040EA0220034A104308607047000027
:101660000CED00E00000FA052DE9F0470F460500FB
:1016700061D0434E306800F00700B84209D23068AC
:1016800020F0070038433060306800F00700B842AF
:1016900051D128683B4C810712D5400703D56068BB
:1016A00040F4E06060602878000703D5606840F48B
:1016B000605060606068A96820F0F00008436060D6
:1016C0002878C00728D06868012810D0216802282F
:1016D00010D0890700292EDA616821F00301014347
:1016E0006160FFF76FFC804641F288390DE02168A8
:1016F0008903EFE78901EDE7FFF764FCA0EB080140
:10170000494502D90320BDE8F0876068696800F0A8
:101710000C00B0EB810FEFD1306800F00700B84249
:101720000BD9306820F0070038433060306800F093
:101730000700B84201D00120E5E72878400705D529
:101740006068E96820F4E06008436060287800077A
:1017500006D56068296920F4605040EAC1006060E5
:1017600000F038F86168084AC1F30311515CC840C1
:101770000649086006480068FFF7F8FE0020C2E747
:101780000020024000100240F63900080C00002042
:10179000040000200448054900684968044AC1F370
:1017A0000221515CC84070470C000020001002402C
:1017B000063A00080448054900684968044AC1F32C
:1017C000C221515CC84070470C000020001002404C
:1017D000063A00080E4A51680E4801F00C03042B2B
:1017E00011D0082B0FD10C48C1F38343C903C05C4F
:1017F0000AD55168084AC1F34041921E515C054A1E
:101800005043B0FBF1F07047044948437047000073
:101810000010024000127A00E639000800093D007D
:101820002DE9F84F040070D02078C04DC00749D092
:101830006868C0F38100012807D06868C0F38100A0
:10184000022809D16868C00306D52868800339D505
:1018500060680028E7D035E06068B0F5803F0BD0C5
:1018600010B1B0F5A02F11D0286820F48030286086
:10187000286820F4802002E0286840F48030286046
:10188000606890B1FFF79EFB06460AE0286840F4C6
:1018900080202860F0E700BFFFF794FB801B6428DE
:1018A00073D828688003F7D50CE0FFF78BFB06465A
:1018B00005E000BFFFF786FB801B6428F0D828688E
:1018C0008003F7D420789A4E80074FF001094FF03B
:1018D000000839D5686810F00C0F07D06868C0F3AD
:1018E0008100022809D16868C00306D428688007EF
:1018F00014D52069012808D110E02069B0B1C6F8DC
:101900000090FFF75FFB074605E00AE1FFF75AFB8F
:10191000C01B0228C4D828688007F7D528686169E9
:1019200020F0F80040EAC10028600DE0C6F8008011
:10193000FFF748FB074604E0FFF744FBC01B022803
:1019400023D828688007F7D4207800072CD5794859
:10195000A169D9B1C0F80090FFF734FB074604E055
:10196000FFF730FBC01B02280FD8686A8007F7D545
:1019700071484FF4FA510068B0FBF1F0009000BFDD
:101980000098411E0091FAD20EE080E0C0F800807D
:10199000FFF718FB074604E0FFF714FBC01B022803
:1019A00075D8686A8007F7D42078400760D5E86961
:1019B0000027C00008D4E86940F08050E861E86979
:1019C000012700F0805000905C480168C90513D4DD
:1019D0000168834641F480710160FFF7F3FA8246A3
:1019E00006E000BFFFF7EEFAA0EB0A0064284ED82D
:1019F000DBF80000C005F5D5E06801280AD008B181
:101A0000052813D0286A20F001002862286A20F0F7
:101A1000040002E0286A40F001002862E06841F218
:101A2000883B98B1FFF7CEFA82460BE0286A40F077
:101A300004002862EEE700BFFFF7C4FAA0EB0A013A
:101A400059455AD8286A8007F6D50CE0FFF7BAFA4C
:101A5000824605E0FFF7B6FAA0EB0A0159454CD8DB
:101A6000286A8007F6D41FB1E86920F08050E86149
:101A7000E06988B36968C1F38101022944D0022872
:101A8000C6F8608004D0FFF79DFA044638E034E0E1
:101A9000FFF798FA074604E0FFF794FAC01B022804
:101AA0002BD828688001F7D4206AB0F5803F05D193
:101AB0006868A16820F4003008436860D4E9080130
:101AC0000843696821F4741108436860C6F860909F
:101AD000FFF778FA044606E025E000BFFFF772FA48
:101AE000001B022809D828688001F7D51BE000BF39
:101AF000FFF768FA001B022802D90320BDE8F88F1F
:101B000028688001F4D40EE00128F7D06868226AC2
:101B100000F48031914204D1616A00F4701088426F
:101B200001D00120EAE70020E8E7000000100240B1
:101B300000004242800442420C000020007000403D
:101B40007047000038B50446006842688168C943A0
:101B50004B0606D5CB0704D1D3435B0601D4216CD9
:101B600005E08B0708D4D3431B0605D4616C01B094
:101B70002046BDE8304008478B0601D54B0646D4C9
:101B8000D3439B0643D44B060AD494F85130032B1D
:101B90003ED0636D43F004036365C36883680093BC
:101BA000890609D4616D41F0010161658168009188
:101BB000016821F040010160606D002827D0206895
:101BC000416821F0E0014160012084F85100900754
:101BD00022D02068416821F003014160104DE06C83
:101BE00040B14563E06CFFF7A7F818B1606D40F0B5
:101BF00040006065A06C002809D04563A06CFFF729
:101C00009BF8002803D0606D40F04000606538BD4F
:101C1000C1688068009038BD2046FFF791FF38BD4D
:101C20008D33000870B5040009D0606A002540B10A
:101C300025616561A56294F8510040B10CE0012076
:101C400070BD6068B0F5827FF4D0E561F2E784F89A
:101C50005050204600F040F8022084F851002068DF
:101C6000016821F040010160A088218900F48270A0
:101C700001F404410843A18901F400610843217C77
:101C800001F002010843217D01F001010843218B8D
:101C900001F400710843217F01F03801084394F8F2
:101CA000201001F080010843218D01F40051084308
:101CB00021680860A069042101EA10402168486099
:101CC0002068C16921F40061C1616565012084F863
:101CD0005100002070BD000010B586B000210091B9
:101CE00001910291039100681749884229D1174850
:101CF000816941F480518161816901F480510491CD
:101D0000816941F0040181618069114C00F0040097
:101D10000490B020009069462046FFF75DF840200F
:101D20000090022001900320039069462046FFF7AF
:101D300053F8002211462320FFF764FC2320FFF70D
:101D400053FC06B010BD00000030014000100240FE
:101D50000008014010B5401EB0F1807F01D3012082
:101D600010BD4FF0E02460610F21601701F049FDC4
:101D70000020A06107202061002010BD10B590F860
:101D80003C20012A22D0012280F83C20CA688C68BD
:101D900022F4407222434C6822F4806222430C6891
:101DA00022F4006222430C6922F4805222434C69DF
:101DB00022F400522243C969002322F480420A43DC
:101DC00001684A6480F83C30002010BD022010BD3C
:101DD00070B590F83C20012A26D0012480F83C40C0
:101DE000022280F83D2003685A689D6822F0700640
:101DF0000A6832435A600D4B02689A4208D0B2F129
:101E0000804F05D00A4B9A4202D00A4B9A4204D125
:101E1000496825F080031943916080F83D40002116
:101E200080F83C10084670BD022070BD002C0140B7
:101E3000000400400008004010B5040003D094F8EE
:101E40003D0010B107E0012010BD002084F83C00E7
:101E5000204600F01FF8022084F83D00211D206874
:101E600001F0CEFA012084F8460084F83E0084F8A0
:101E70003F0084F8400084F8410084F8420084F870
:101E8000430084F8440084F8450084F83D000020B5
:101E900010BD000008B5174A01681748914207D1E4
:101EA000816941F400618161806900F4006014E09F
:101EB000B1F1804F0AD0114A914210D1C16941F06D
:101EC0000201C161C06900F0020006E0C16941F091
:101ED0000101C161C06900F00100009008BD084A1D
:101EE0009142FBD1C16941F00401C161C06900F0B8
:101EF0000400F2E7002C0140001002400004004002
:101F00000008004070B5044690F83C000025012808
:101F100017D0012684F83C60022084F83D00206838
:101F2000826822F0770222F47F428260086850289B
:101F300038D00DDC20284FD005DC90B3102811D10B
:101F40004AE0022070BD302846D040280AD13BE04C
:101F500060282FD070280DD0B0F5805F03D0B0F589
:101F6000005F12D0012584F83D60002084F83C0019
:101F7000284670BDCB68D1E90121206801F076FACE
:101F80002068816841F0770109E0CB68D1E901213F
:101F9000206801F06BFA2068816841F4804181601B
:101FA000E1E719E0CA684968206801F013FB502195
:101FB000206806E0CA684968206801F01CFB6021BF
:101FC000206801F05DFACEE7CA684968206801F030
:101FD00001FB40212068F4E7226801461046F0E743
:101FE00030B585B0002100910191029103912C4DF3
:101FF00004682C49022203232B48AC420AD18C6985
:1020000044F004048C61896901F0040104914FF4E7
:10201000E0612AE0B4F1804F1ED0244884422CD1E4
:10202000886940F0100088618869694600F01000F6
:1020300004904FF47070CDE9000203931C48FEF742
:10204000CBFE1C48416821F4406141F0E06141F45D
:102050004061416005B030BD8C6944F004048C617E
:10206000896901F0040104910E21CDE90012039366
:102070004FEA0D01FEF7B0FEECE70F488442E9D1CC
:10208000886940F0080088618869694600F00800A6
:1020900004904FF44070CDE9000203930748E9E74C
:1020A000002C0140001002400008014000040040E4
:1020B000001001400000014000080040000C0140F9
:1020C00070B5044690F83C0000260D4601280FD05C
:1020D000012084F83C006AB1042A1DD0082A2FD0C0
:1020E0000C2A3FD00126002084F83C00304670BD09
:1020F000022070BD206801F0CBF92068816941F0B1
:10210000080181612068816921F0040181612068F2
:1021100081692A69114311E0206801F0E1F9206822
:10212000816941F4006181612068816921F48061E5
:102130008161206881692A6941EA02218161D2E7CF
:10214000206801F0F9F92068C16941F00801C16116
:102150002068C16921F00401C1612068C1692A6950
:10216000114311E0206801F013FA2068C16941F4BD
:102170000061C1612068C16921F48061C16120688A
:10218000C1692A6941EA0221C161ACE710B50400C6
:1021900003D094F83D0010B107E0012010BD0020ED
:1021A00084F83C00204600F01EF8022084F83D0030
:1021B000211D206801F024F9012084F8460084F8EC
:1021C0003E0084F83F0084F8400084F8410084F821
:1021D000420084F8430084F8440084F8450084F801
:1021E0003D00002010BD704770477047F8B501688A
:1021F00004460868CA684B6910F00F0F4FF00005DD
:1022000059D003F0010602F49077374365D0C10737
:1022100005D0D10503D5616C41F00101616441072E
:1022200005D5D90703D0616C41F0020161648107D3
:1022300005D5D90703D0616C41F004016164010741
:1022400007D502F02001314303D0616C41F0080151
:102250006164616C00293AD0800604D5900602D5ED
:10226000204601F009FA20684069616CC0F38010D3
:10227000090700D460B3204601F0D7F9206840690F
:10228000400621D52068143050E8001F21F040019D
:1022900040E80012002AF5D1E06BA8B16D49416316
:1022A000E06BFEF749FD002811D0E06B416B01B0F7
:1022B000BDE8F040084783060FD593060DD52046AC
:1022C000BDE8F84001F0D8B92046FFF78EFFF8BD11
:1022D0002046FFF78AFF6564F8BD266B2023012E98
:1022E0007CD1C6067AD5D60678D5086848680090AD
:1022F00048694FF00206400640D5E16B0868406827
:102300000004000CE8D0A28D8242E5D9E0858869FE
:1023100020282DD020680C3050E8001F21F4807157
:1023200040E80012002AF5D12068143050E8001F60
:1023300021F0010140E80012002AF5D12068143094
:1023400050E8001F21F0400140E80012002AF5D1BA
:1023500084F84230256320680C3050E8001F21F0DB
:10236000100140E80012002AF5D1E06BFEF7C0FC36
:102370006663A08DE18D401A81B22AE0A08DE18DC7
:10238000401A81B2E08D0028A6D00029A4D022688E
:102390000C3252E8000F20F4907042E80007002F42
:1023A000F5D12068143050E8002F22F0010240E8F7
:1023B0000027002FF5D184F84230256320680C30C7
:1023C00050E8002F22F0100240E80023002BF5D146
:1023D00066632046FFF708FFF8BDFFE705062BD52B
:1023E000150629D594F841002128F5D1A068B0F54B
:1023F000805F01D12069B0B1206A411C216221684F
:1024000000784860E08C401E0004000CE084E3D1BA
:102410002068C16821F08001C1602068C16841F076
:102420004001C160D8E7206A0088C0F30800486016
:10243000206A801C2062E5E74006CDD55006CBD54A
:10244000CA68204622F04002CA6084F8413000F099
:1024500082F8C1E71B36000870B5040004D094F878
:102460004100002510B106E0012070BD84F8405005
:10247000204600F023F8242084F841002068C16839
:1024800021F40051C160204601F058F9206801692B
:1024900021F4904101612068416921F02A014161E4
:1024A0002068C16841F40051C1606564202084F84F
:1024B000410084F842006563002070BD30B585B0EE
:1024C0000024009401940294039400681D498842FA
:1024D00035D11D48C16941F48021C161C16901F450
:1024E00080210491816941F0100181618069174D5B
:1024F00000F0100004904FF48060009002200190E2
:102500000320039069462846FEF766FCE814CDE9EF
:102510000004694628460294FEF75EFC0C484168B8
:1025200021F0300141F0E06141F0100141600022F2
:1025300011462720FFF766F82720FFF755F805B06A
:1025400030BD000000480040001002400010014073
:102550000000014070477047FEE700000148FEF7A9
:1025600039BD00001C0100200148FEF795BD0000A8
:102570001C0100200148FEF72DBD00007001002065
:102580000148FEF789BD00007001002038B5406A9F
:10259000002190F83D202B4B46F2A8141B68B3FB9A
:1025A000F4F3C3EBC30303EB830300933BB15B1E64
:1025B000009303681B689B0505D5009BF6E7036C39
:1025C00043F020030364436B03B19962836B03B14F
:1025D000996203681C6824F480641C604185436B25
:1025E00003B15963836B03B1596303681C6824F01A
:1025F00001041C6090F83D402023602C0BD028245F
:1026000034EA02020FD080F83D3080F83E1000BF5F
:10261000FEF75AFE38BD80F83D3080F83E10016468
:10262000FEF7D6FC38BD0268136843F0010313605F
:102630000268136843F480631360016380F83D40CF
:10264000E6E700000C00002000684169C943090664
:1026500001D400210161704770B5044690F83D0037
:1026600094F83E10102901D0402906D1222804D127
:1026700021680A6822F400620A60282131EA000217
:102680004FF000054FF0200626D021684968090563
:1026900005D4602803D084F83D6084F83E5025635B
:1026A00020684168090537D5416821F4006141601F
:1026B000606B90F821203C49012A11D04163606B86
:1026C000FEF73AFB38B32068016821F00101016090
:1026D00084F83D60606B1CE0256384F83D10DFE703
:1026E000A06B4163A06BFEF727FBA0B12068416996
:1026F000C943490605D40069616A0870606A401CD4
:1027000060622068016821F00101016084F83D6089
:10271000A06B416B884710E094F83D10602910D001
:102720004169C943490605D40069616A0870606A55
:10273000401C60622046FEF7C7FD206CC1071CD11B
:1027400015E084F83D6025644169C943490605D414
:102750000069616A0870606A401C606220680168F4
:1027600021F0010101602046FEF732FCE5E7810718
:1027700003D4410701D4000704D52068416821F43F
:10278000E061416094F83D00216C49070BD5282891
:1027900009D10648E062256384F83D6084F83E5024
:1027A0002046FEF757FE70BD8D2500080000FFFF94
:1027B00010B5C26A438D0168042B06D0438D032BEC
:1027C00008D0438D022B1DD012E04A6822F48062AB
:1027D0004A600CE04B6823F480634B60042A06D007
:1027E000022A04D001680A6822F480620A60016843
:1027F0000969426A1170416A491C4162418D491E52
:10280000418510BD012A30D0102A2ED0042A30D0A4
:10281000022A2ED00A6842F400720A60016809692F
:10282000426A1170416A491C4162428D521E4285C2
:10283000026812690A70416A491C4162418D491E51
:10284000418501684A6822F440724A60202180F87C
:102850003D1090F83E200021402A80F83E100CD018
:1028600012210163FEF7F7FD10BD0A6822F48062B1
:10287000D3E70A6842F48062CFE70163FEF7EDFD1B
:1028800010BD000038B590F83D1022290FD1418DC0
:1028900003290DD901680969426A1170416A491C0E
:1028A0004162418D491E4185418D032906D038BDC5
:1028B000C26A022A02D0012906D029B10068416803
:1028C00021F48061416038BD274946F2A8130022F7
:1028D0000968B1FBF3F101EB81010091016820234C
:1028E000009C641E009422D00C68A405F8D40C68E7
:1028F00024F480640C6001684C6824F4E0644C604B
:1029000001680969446A2170416A491C4162418D2C
:10291000491E418580F83D3090F83E1080F83E20F9
:1029200040291DD012210163FEF795FD38BD046CCE
:1029300044F0200404644C6824F4E0644C600168B2
:102940000969446A2170416A491C4162418D491EEE
:10295000418580F83D3080F83E20FEF7B5FC38BD5B
:102960000263FEF77AFD38BD0C00002010B5C26A84
:1029700090F83D1021290BD1418D51B1416A026877
:1029800009781161416A491C4162418D491E4185A6
:1029900010BD20230021082A13D0202A11D012F5BF
:1029A000803F0ED00268546824F4E0645460112221
:1029B000026380F83E1080F83D3000BFFEF74CFD0A
:1029C00010BD0268546824F4E0645460026814681E
:1029D00044F400741460016380F83D3090F83E20A8
:1029E00080F83E10402AE9D1FEF738FD10BD000006
:1029F00010B590F83D1090F83E30C26A048DB4B125
:102A0000212903D0402B11D122290FD1418DE1B3CF
:102A100090F83E10402942D0416A0268097811615D
:102A2000416A491C4162418D491E418510BD2129E1
:102A3000E8D120230021082A13D0202A11D012F532
:102A4000803F0ED00268546824F4E0645460112280
:102A5000026380F83E1080F83D3000BFFEF7FCFCBA
:102A600010BD0268546824F4E0645460026814687D
:102A700044F400741460016380F83D3090F83E2007
:102A800080F83E10402AE9D100E002E0FEF7E6FCC3
:102A900010BD0068416821F48061416010BDBDE84F
:102AA000104000F0F3B8000078B590F83E50C26ACC
:102AB000046B90F83D6000230168222E73D1066DEF
:102AC0000EB9402D6FD0056D1DB90569B5F5404FA4
:102AD0001BD0458D95B3468D484D012E20D0448D99
:102AE000022C4DD00C6844F480640C6001684C6882
:102AF000240579D5AA4273D0012A71D0082A6FD053
:102B0000102A6DD0202A6BD06EE04A698A69009243
:102B10000A6842F480720A60016D491C016578BD43
:102B2000AA4214D10A6822F480620A6001684A68E5
:102B3000120504D50A6822F4806217E0FFE74A69AB
:102B40008A6900920A6842F400720A6050E0082A1A
:102B500010D0202A0ED0122C0AD0042A03D0022A28
:102B600001D0102AE6D10A6842F480620A603BE094
:102B7000012ADFD00A6822F480620A600168DEE779
:102B8000042A11D0022A0FD0102A0DD00C6844F468
:102B900000640C6001684C698C6900940C6824F432
:102BA00080640C6008E025E00C6844F480640C60EC
:102BB00001684C698969009101684C68240517D542
:102BC000AA4207D0012A05D0082A03D0102A01D032
:102BD000202A0DD14A6842F480524A6008E0FFE79B
:102BE0004A6842F480524A6001684A6989690091E2
:102BF000036578BD48698869009078BD0000FFFFD3
:102C000090F83E10402910D00169B1F5804F19D0DD
:102C1000016DA9B3016D012910D1416C5FF0F10282
:102C200001F4407142EAD11106E0016D0029416CC6
:102C300005D0C9B241F0010100680161704701F09F
:102C4000FE01F9E790F83D102129416C09D0C9B285
:102C500041F0010102681161416B29B1896A49B9EA
:102C600002E001F0FE01F5E7816B0029E6D0896AF8
:102C70000029E3D00068416841F400614160704779
:102C8000FFE7416CF02201F44071CBE710B590F8FA
:102C90003D10026D4AB1026D012A14D0026D022A64
:102CA00016D0BDE81040FFF7CFBCC16C0129816C84
:102CB00002D0C1F3072108E00268C9B21161016DB9
:102CC000891C016510BD816CC9B20268116123E0E5
:102CD00022291CD0428D0AB1212920D0428D002A00
:102CE000F0D12129EED101684A6822F4E0624A60FD
:102CF00001680A6842F400720A6000210163202220
:102D000080F83D2080F83E10FEF7A8FB10BD01685A
:102D10000A6842F480720A60016D491CD1E7416A79
:102D2000026809781161416A491C4162418D491E5E
:102D3000418510BD38B50C4690F83D20002128256E
:102D4000954302680B4605D051699169009180F85E
:102D50003C3038BD556825F480655560E243540722
:102D600000D50121120601D5828900E0028B80F88E
:102D70003C3092B2FEF72DF938BD00002DE9F0414C
:102D800090F83D300446C26A002120261E4F00689C
:102D90006FF48065082A01D0202A01D1282B04D0A5
:102DA000212B17D04561BDE8F081E762426822F42B
:102DB000E0624260206845612068026822F4806217
:102DC0000260216384F83D6084F83E102046FEF7DF
:102DD00041FBE8E7E7622122226384F83D6084F842
:102DE0003E10416821F4E06141602068456120683F
:102DF000016821F4806101602046FFF725FC204630
:102E0000FEF799FBCFE700000000FFFFF8B590F850
:102E10003D6004460068416821F4E061416020683B
:102E2000002541690091016841F0010101602068BD
:102E3000016821F48061016020684168090520D59E
:102E4000474F222E48D02A2E46D0616B0968496828
:102E50006185618D19B1216C41F0040121644168E3
:102E600021F400614160606BFDF7B2FF012808D0DA
:102E7000606B4763606BFDF75FFF10B1606B416B88
:102E80008847608D08B320684169C943490708D461
:102E90000069616A0870606A401C6062608D401E53
:102EA000608520684169C943490608D40069616AA0
:102EB0000870606A401C6062608D401E6085608D95
:102EC00018B1206C40F004002064206C00B3204650
:102ED000BDE8F840FFF7C0BBA16B09684968618590
:102EE000618D19B1216C41F004012164416821F424
:102EF00000614160A06BFDF76BFF0128C1D0A06BA2
:102F00004763A06BFDF718FF0028BAD0A06BB6E7A7
:102F10002A2E06D12563282084F83D002046FEF79E
:102F200009FB94F83D10202028290DD0216B22297F
:102F300001D0222E07D1256384F83D0084F83E504D
:102F40002046FEF7F7FAF8BD0649E162256384F8EA
:102F50003D0084F83E502046FEF77CFAF8BD0000A4
:102F60008D2500080000FFFF07490968C9070AD03E
:102F7000054980390968C90705D04FF060410A68E2
:102F8000002AFCD008707047800E00E02DE9F04167
:102F900086B000242448009401940294039481692B
:102FA00041F004018161816901F0040104918169AA
:102FB00041F008018161816901F008010491816992
:102FC00041F010018161816901F010010491816972
:102FD00041F0200181618069144F00F0200048F227
:102FE00001050490002229463846FDF7E5FFDFF889
:102FF0004080002204214046FDF7DEFF00950226B6
:1030000001250396CDE9015469463846FDF7E4FEF3
:103010000420CDE90005CDE9024669464046FDF7AA
:10302000DBFE06B0BDE8F081001002400008014060
:10303000001401400C4810B50A49016000214160AC
:103040008160C160016141618161016241628162AF
:103050000A21C162FEF7E6FD002801D072B6FEE744
:1030600010BD000000300140C401002010B596B032
:1030700000240F9410941194129413941C21684608
:103080001494FDF7B5F8202107A8FDF7B1F83048F2
:103090002E49C0E900144FF6FF71C0E902410461F6
:1030A00044618461FEF7C8FE08B172B6FEE74FF4D2
:1030B00080500F900FA92648FEF724FF08B172B682
:1030C000FEE72348FFF762F808B172B6FEE71394F3
:1030D00013A91F481494FEF77BFE08B172B6FEE7F1
:1030E0006020CDE900040294039404940594002226
:1030F000694617480694FEF7E3FF08B172B6FEE78B
:10310000042269461248FEF7DBFF08B172B6FEE7FB
:10311000082269460E48FEF7D3FF08B172B6FEE7F3
:103120000794089409944FF400500A94CDE90B4099
:1031300007A907480E94FEF721FE08B172B6FEE714
:103140000348FEF74DFF16B010BD0000002C0140F3
:103150001C02002010B58EB0002407940894099436
:103160000A940B941C2168460C94FDF741F82548FD
:103170004FF08041C0E900144FF6FF71C0E90241F1
:1031800004618461FEF758FE08B172B6FEE74FF4A1
:103190008050079007A91B48FEF7B4FE08B172B62D
:1031A000FEE71848FEF7F2FF08B172B6FEE70B948F
:1031B0000BA914480C94FEF70BFE08B172B6FEE79B
:1031C0006020CDE900040294042269460D4804946D
:1031D000FEF776FF08B172B6FEE708226946094895
:1031E000FEF76EFF08B172B6FEE70C22694605488D
:1031F000FEF766FF08B172B6FEE70248FEF7F0FE82
:103200000EB010BD6402002010B58EB000240794EB
:10321000089409940A940B941C2168460C94FCF7BA
:10322000E7FF2A482849C0E900144FF6FF71C0E9BA
:10323000024104618461FEF7FFFD08B172B6FEE74A
:103240004FF48050079007A92048FEF75BFE08B1B5
:1032500072B6FEE71D48FEF799FF08B172B6FEE7A9
:103260000B940BA919480C94FEF7B2FD08B172B685
:10327000FEE76020CDE9000402940022694613486D
:103280000494FEF71DFF08B172B6FEE704226946FA
:103290000E48FEF715FF08B172B6FEE70822694630
:1032A0000A48FEF70DFF08B172B6FEE70C22694628
:1032B0000648FEF705FF08B172B6FEE70348FEF7C1
:1032C0008FFE0EB010BD000000040040AC020020D4
:1032D00010B58EB000240794089409940A940B94B6
:1032E0001C2168460C94FCF783FF22482049C0E962
:1032F00000144FF6FF71C0E9024104618461FEF7DA
:103300009BFD08B172B6FEE74FF48050079007A905
:103310001848FEF7F7FD08B172B6FEE71548FEF74C
:1033200035FF08B172B6FEE70B940BA911480C9457
:10333000FEF74EFD08B172B6FEE76020CDE900044D
:103340000294082269460B480494FEF7B9FE08B1BE
:1033500072B6FEE70C2269460648FEF7B1FE08B1D8
:1033600072B6FEE70348FEF73BFE0EB010BD00004C
:1033700000080040F4020020FEE7FEE7704700006E
:103380000148FEF7DFBB0000C401002010B5406A11
:103390000021C187C186FEF7D3FB10BD7047FEF741
:1033A000CBB830B58FB028216846FCF721FF142137
:1033B0000AA8FCF71DFF02250120049000951020AB
:1033C000059000244FF4E010CDE9084007956846C9
:1033D000FEF726FA08B172B6FEE70F20CDE90A051E
:1033E0004FF48060CDE90C4001210AA80E94FEF74D
:1033F0003BF9002801D072B6FEE70FB030BD704730
:10340000F0B50268164B174C174D4FF080479842A5
:1034100005D0B84203D0A04201D0A84203D122F087
:1034200070064A683243984205D0B84203D0A042A1
:1034300001D0A84203D122F44074CA6822434C69E7
:1034400022F08002224302608A68C2620A688262B5
:10345000984201D10969016301214161F0BD000079
:10346000002C0140000400400008004010B58468B2
:1034700042EA032224F47F440A432243826010BDBF
:10348000826822F070020A4342F0070181607047AF
:1034900030B5036A026A22F001020262426884695E
:1034A00024F073050C682C4323F002058B682B4332
:1034B0000A4DA8420BD123F00805CB6822F44072D4
:1034C0002B434D6923F0040315438A692A43426064
:1034D000846149684163036230BD0000002C0140F3
:1034E00030B5026A036A23F01003036243688469FB
:1034F0000D6824F4E64444EA05248D6822F0200295
:1035000042EA05120B4DA8420ED1CD6822F080028E
:1035100042EA05124D6923F4406343EA85038D694D
:1035200022F0400243EA8503436084614968816375
:10353000026230BD002C014030B5036A026A22F4F9
:10354000807202624268C46923F4007324F0730538
:103550000C682C438D6843EA05230C4DA8420ED11C
:10356000CD6823F4006343EA05234D6922F44052F9
:1035700042EA05128D6923F4806342EA0512426033
:10358000C4614968C163036230BD0000002C014082
:1035900030B5046A026A22F4805202624268C3694A
:1035A0000D6823F4E64343EA05238D6824F40054B0
:1035B00044EA0534064DA84204D14D6922F4804204
:1035C00042EA85124260C36149680164046230BD09
:1035D000002C014010B5036A046A24F0010404625F
:1035E000846924F0F00444EA021423F00A020A4336
:1035F0008461026210BD10B5036A046A24F01004ED
:103600000462846923F0A00324F4704444EA023283
:1036100043EA01118261016210BD10B5406A0021C8
:10362000C185C184FEF7E1FD10BD01680C3151E890
:10363000002F22F4907241E80023002BF5D101689D
:10364000143151E8002F22F0010241E80023002B41
:10365000F5D1016B012909D101680C3151E8002F26
:1036600022F0100241E80023002BF5D1202180F840
:10367000421000210163704708B590F842102229DA
:1036800001D0022008BD82684FF480539A4201D1D4
:10369000016921B1816A9A421BD04AB10AE00268ED
:1036A000816A5268C2F308020A80816A891C08E0B4
:1036B000026972B10268526802F07F020A70816A80
:1036C000491C8162C18D491E0904090CC18503D0C2
:1036D0001BE002685268F1E70168CA6822F0200224
:1036E000CA600168CA6822F48072CA6001684A69C7
:1036F00022F001024A61202180F84210002141633A
:10370000026B012A03D0FEF725FF002008BD0163EC
:1037100001680C3151E8002F22F0100241E800232B
:10372000002BF5D101680A68D20602D50A684968FB
:103730000091818DFEF758FDE7E7000070B5044663
:1037400000680169E26821F4405111430161216977
:10375000A0680843616908432168CA6841F20C63A4
:103760009A430243CA6020684169A26921F440710A
:10377000114341611E492068884202D1FEF71AF8C0
:1037800001E0FEF707F800EBC00101EB00126068F2
:1037900064218000B2FBF0F3B3FBF1F36FF0180685
:1037A0007343B2FBF0F5B2FBF0F605EB8305322371
:1037B00003EB0515B5FBF1F5B6FBF1F605F0F005E9
:1037C00005EB0615B2FBF0F6B2FBF0F0B0FBF1F042
:1037D0006FF01802504306EB800003EB0010B0FBC3
:1037E000F1F0216800F00F002844886070BD0000EF
:1037F000003801400148FEF7F9BC00003C030020FE
:10380000FEE70907090E002804DB00F1E02080F83C
:103810000014704700F00F0000F1E02080F8141D44
:1038200070476FF40041401804D0012803D00228EB
:1038300001D008147047002070476FF40041401811
:1038400000D0002070476FF40041401805D00128D7
:1038500002D0022801D000207047012070470000EC
:1038600070B504004FF0FF3511D020783A280ED102
:103870000CA12046FCF7E4FC58B10CA12046FCF753
:10388000DFFC48B10BA12046FCF7DAFC38B1284632
:1038900070BD48F2010070BD48F2020070BD48F2F0
:1038A000030070BD3A535444494E00003A53544407
:1038B0004F5554003A535444455252004FF0FF3094
:1038C000704710B50C466FF40041411813464FF095
:1038D000FF3013D0012902D002290FD106E063B1D5
:1038E00014F8010BFFF740FB5B1EF8E72BB114F84F
:1038F000010BFFF739FB5B1EF8E7002010BD8A685B
:10390000002A01DCFCF70ABE521E8A604A68C0B277
:10391000531C4B6010707047FDF716FEFFF741FD1A
:10392000FFF734FBFFF786FB24482349244E00248D
:103930000160C0E901640D14C0E90345446184617C
:10394000C4610462FDF7C2FC08B172B6FEE71B4811
:103950001C4954300160C0E90164C0E90345446179
:103960008461C4610462FDF7B1FC08B172B6FEE780
:10397000FFF77CFBFFF7EEFBFFF746FCFFF7A8FC29
:103980001248114901604FF41651C0E901140C218D
:10399000C460C0E904418461C461FEF75DFD08B103
:1039A00072B6FEE70A4900200854401CFF28FBD9E4
:1039B00008A0FCF711FCFBE7005400401C010020AC
:1039C000A086010000580040004800403C03002051
:1039D0001C00002048656C6C6F2C20776F726C6443
:1039E000210D0A00010202030405060708090A0B5B
:1039F0000C0D0E0F1010000000000000000001026E
:103A000003040607080900000000010203043A53FA
:103A10005444494E003A5354444F5554003A535479
:103A20004445525200000000483A000800000020BF
:103A30001C00000028010008643A00081C00002057
:103A4000C40A00004401000801000000100000004A
:103A5000000000000024F40000000000000000004E
:043A60000000000062
:04000005080000ED02
:00000001FF
